:020000041008E2
:1000000000000808394708105D4A081081480810A8
:10001000614A0810654A0810694A0810000000008B
:10002000000000000000000000000000314908103E
:100030006D4A081000000000714A0810754A081047
:10004000B73F0810DD3F0810034008102940081092
:100050004F400810754008109B400810C140081020
:10006000794A08107D4A0810814A0810854A08100C
:10007000894A08108D4A0810914A0810954A0810BC
:1000800040F0200070472DE9F14FB0B09246049146
:100090000DF142013A9A2B9199464A7000200AE0EC
:1000A0001AF8011B0498309A90470028049000F039
:1000B00034860D98401C0D909AF8000050B1252808
:1000C000EED1002100220791089209910A920B912A
:1000D0000C9204E00D9800F022BE41F001011AF8E4
:1000E000010F2028F9D023280CD02B2804D02D284C
:1000F00005D0302809D00BE041F00201EFE741F0D4
:100100000401ECE741F00801E9E741F01001E6E7FE
:100110002A280FD1D9F8002052F8040BC9F8002082
:1001200000280F9003D540420F9041F004010AF1DE
:10013000010A14E00F92DFF8EC3B0AE00F989842B6
:1001400005DA00EB800402EB4402303A0F920AF128
:10015000010A9AF80020A2F130000A28EED39AF89A
:1001600000002E2803D04FF0FF320E9229E01AF83B
:10017000010F2A2809D1D9F8000050F8042BC9F83A
:1001800000000E920AF1010A1BE02D280CBF0AF1B3
:10019000010A002000220E92DFF8884B0BE040B9E4
:1001A0000E9AA24205DA02EB820503EB4503303BCF
:1001B0000E930AF1010A9AF80030A3F130020A2ADC
:1001C000EDD3ADF840100FF660309AF8001000F053
:1001D000EDFE08B11AF8010B8DF842009DF84200BF
:1001E000682805D19AF8000068280CD1622106E041
:1001F0006C2804BF9AF800006C2804D171218DF896
:1002000042100AF1010A12A806901AF801BBBBF1CC
:1002100025012CD01C3900F09481091F022940F2DD
:100220009081133900F0AB84093900F08A81891E6E
:1002300000F04085491E00F0ED84491E022940F27D
:100240008081091F00F0E684491F00F0EF80491EFD
:1002500000F09584491E00F0D780C91E0CD0891E7D
:1002600000F08D84C91E00F08A8400F02EBD0123A9
:100270000793252100F026BDD9F8000050F8044B63
:10028000C9F80000002C059440F0AB802B99487809
:10029000002800F0A1804FF0FF340FF6942000F00A
:1002A00095FE241A40F0398500F01BBD01236A46F3
:1002B00002A9304600F000FE002840F02E85641EA2
:1002C000F4D13096079C12AF74B1309E17F8011B21
:1002D0000498B0470028049000F01F850D98401C3A
:1002E000641E0D90F2D130960A9C3021002C8DF8BE
:1002F00000100CDD309E01236A4602A9304600F052
:10030000DBFD002840F00985641EF4D13096059F7E
:10031000089C74B1309E17F8011B0498B047002860
:10032000049000F0FA840D98401C641E0D90F2D1E8
:1003300030960B9C3021002C8DF800100CDD309E87
:1003400001236A4602A9304600F0B6FD002840F0BD
:10035000E484641EF4D1309605980899099C4718E6
:1003600074B1309E17F8011B0498B0470028049020
:1003700000F0D3840D98401C641E0D90F2D130968D
:100380000C9C3021002C8DF800100CDD309E0123D8
:100390006A4602A9304600F08FFD002840F0BD8477
:1003A000641EF4D130969DF8400041077FF584AE7D
:1003B0002020002D8DF800007FF77EAE309C0123B9
:1003C0006A4602A9204600F077FD002840F0A58487
:1003D0006D1EF4D130946FE60FF63C30059000F0BE
:1003E00080BC0E9D002D04D5204600F00FFE044673
:1003F00007E02A46204600F025FE002814BF041B13
:100400002C46089400F06DBCD9F8001051F8040B8C
:10041000C9F8001020F00004002121F0FF35CDE9DB
:10042000024512AB0593782100F040BC2B99487827
:1004300020B14FF0FF340FF6B02030E79DF84200B6
:10044000622860D0682817D06A283FD06C2806D070
:10045000712847D074282CD07A281DD062E0D9F8B2
:10046000001051F8040BC9F80010002866D14FF0B5
:10047000FF340FF68C2012E7D9F8001051F8040B66
:10048000C9F8001020B94FF0FF340FF6742006E7CA
:100490000D99018000F025BCD9F8001051F8040B2B
:1004A000C9F80010002849D14FF0FF340FF6502052
:1004B000F5E6D9F8001051F8040BC9F8001000282F
:1004C0003CD14FF0FF340FF63820E8E6D9F80010A1
:1004D00051F8040BC9F8001080B94FF0FF340FF643
:1004E0002020DCE6D9F8001051F8040BC9F8001000
:1004F00020B94FF0FF340FF60820D0E60D9AD3173D
:10050000C0E90023EDE3D9F8001051F8040BC9F855
:10051000001020B94FF0FF340FF6E410BFE60D993C
:100520000170DEE3D9F8001051F8040BC9F800108F
:1005300020B94FF0FF340FF6C810B0E60D990160F6
:10054000CFE39DF842004C2807BFD9F80010CA1D20
:10055000D9F80000C21D22F00702C9F80020D2E934
:1005600000010832C9F80020CDE90201C80F02D00D
:1005700007982D210AE0BDF84000810702D50798B1
:100580002B2103E0C00705D50798202112AA11549A
:10059000401C079012A807994BF0200300EB010CB8
:1005A000DDE90201CDE92C01612BCDF814C021ACAD
:1005B0000BD00E98002848BF062105D404BF4BF08D
:1005C0002000672801D101210E91DDE902014F00D1
:1005D00047EAD0777E15FF174FF0FF32974208BFEA
:1005E000964210D1090341EA10510003002908BFC7
:1005F000002808D0ABF1610503211A2D089118D30A
:100600000FF61C1110E0DDE902014A00521512F14B
:10061000010F11D108030FD1ABF1610503211A2D90
:1006200008911FD30FF600110322604600F036FD3B
:1006300057E30FF6E801F7E7DDE902016A4600F04B
:1006400081FDCDE902014BF02000612811D1059810
:1006500030210170821C0592BBF1610F0CBF782123
:10066000582102E00FF6BC01DEE741700798801CBC
:100670000790DDE9020120F0000231F0004308BFDD
:10068000002A02D10026002542E14BF02008B8F1F3
:10069000610F40F092800E98002847BF2121019100
:1006A000401C0190019FDDE92C017F1C00220023EA
:1006B000DDE9024500F07EFD38BF85F00045009978
:1006C0008DF88420091F002F00910DF1850632DD81
:1006D000204629460022002300F086FD2BD21C2252
:1006E00000F09CFD04460D4600F036FEFF1F002F73
:1006F000804609DD00F04CFE02460B4620462946A6
:1007000000F00EFF04460D46F01D0721B8F1000F62
:100710000CDD491E5EBF08F00F0200F8012D4FEA04
:100720002818F3D502E0002200F8012D491EFAD561
:10073000C61D002FCCDC0DF18500361A01980DF195
:1007400085048642D8BF304600282FD4B04206DA4E
:100750000DF185010A5C082AA8BF0F2100DA0021EB
:10076000024621AB134400E0401E13F80159521E0B
:100770008D42F9D00F2904D10DF185018B5C5B1CF2
:100780008B54002A04D50099091D21AC401C00910E
:10079000411E0BD4621813783033DDB23A2DA4BF5A
:1007A0005B443A3B491E02F80139F4D50E99002901
:1007B00040F1AC80421E0E92A8E00099DFF8E826D6
:1007C00047F29750414391FBF2F20092DDE92C454C
:1007D000C2F10702002A25F0004504DD2046294623
:1007E00000F03EFB0BE052420020DFF8C01600F0A4
:1007F00037FB02460B462046294600F003FF04461D
:100800000D46B8F1660F06BF009F0A3706270E98FF
:100810003F18142FC8BF142730208DF884000DF125
:100820008506002F34DD2046294601F00FF80146E9
:100830000A4606F1080304200A26B2FBF6F606EB88
:10084000860EA2EB4E02303203F8012C0A22B6FBD0
:10085000F2F202EB820EA6EB4E063036401E03F893
:10086000026DE9D1083F002F03F10806D9DD0846E3
:1008700000F0FEFF02460B462046294600F050FEDF
:100880000022DFF82C3601F001F804460D46CAE7D5
:100890000DF18500361A0DF1850404E00098401E24
:1008A000761E0090641C20783028F7D0B8F1660FCF
:1008B00002D10098401C04E0B8F1650F0CBF012084
:1008C00000200E9940188642B8BF701E00281DD423
:1008D000B04204DA215C3429C8BF392100DC302160
:1008E0000246631E9D1800E0401E15F80169521E65
:1008F0008E42F9D0392902D1A15C491CA154002AA9
:1009000004D50099491C1C46401C00910646009DD8
:100910000E9F30B2002802DC01260FF210644BF06B
:100920002000662808BF6D1C15D067280FFA85F8CF
:1009300041D118F1040F44DBB84542DA9DF840007C
:100940006D1C010703D430B2B842D8BF074628B2A5
:100950003F1A48BF00270FFA85F8B8F1000F00F3DF
:10096000AF800898411C0891302205990A54002F45
:1009700003DC9DF84000010705D50898411C08914B
:100980002E2205990A5417EB080FB8BF7D422DB2ED
:100990006842ED1932B20B909542B8BF2E46059BC6
:1009A000089836B2099632462146184400F076FB84
:1009B000AD1B0C95CCE0BBF1610F15D14FF0700B66
:1009C00017E030B2B84204DA9DF840100A0758BF69
:1009D00007467F1E48BF0027BBF1670F14BF4FF0CB
:1009E000450B4FF0650B04E0BBF1410F08BF4FF022
:1009F000500B0898411C0891002F059914F8012B01
:100A00000A5403DC9DF84000010719D50898411CE1
:100A100008912E2205990A54002F11DD761E30B25E
:100A20008742B8BF3E460598089B32B2214618441B
:100A300000F034FB089836B23018BF1B08900B97B3
:100A4000059808990844B8F1000F80F800B003D465
:100A50002B224270821C04E02D2145464170821CED
:100A60006D4200212CAB28460AE004460A2094FB84
:100A7000F0F000EB8005A4EB450403F8014B491CA2
:100A800000B20028F1DC012906DC4BF020006528CB
:100A900004BF302002F8010B00292CAB08D1302014
:100AA00002F8010B06E0491E585C303002F8010BD9
:100AB0000029F8DC059908980844121A099247E0C1
:100AC00030B229B288421BDA0598089B32B221461F
:100AD000184400F0E3FA089936B271180891A8EBAF
:100AE0000600002F0B9003DC9DF84000020705D59F
:100AF000059A2E2050540999491C09910C9727E01A
:100B00000598089B2AB22146184400F0C7FA0898B5
:100B1000761B4044002F089003DC9DF840100A0724
:100B200004D5411C08912E2205990A5430B28742FF
:100B3000B8BF3E460598089B32B204EB0801184442
:100B400000F0ACFA089836B23018BE1B08900B962D
:100B50009DF8400000F01400102840F0C280079A71
:100B600008980B99821809988A1882180C980F997E
:100B70008018884280F2B580081A0A90B1E09DF88A
:100B80004200622808D068280ED06A2814D06C2849
:100B90001FD0712810D01CE0D9F8001051F8040BB8
:100BA000C9F80010C0B21AE0D9F8001051F8040BCF
:100BB000C9F8001080B212E0D9F80000C21D22F07E
:100BC0000702C9F80020D2E900010832C9F8002064
:100BD00006E0D9F8001051F8040BC9F80010002104
:100BE000CDE902019DF8400001075AD5DDE9022355
:100BF000002B08BF002A54D04BF02000782850D199
:100C0000079812A930220A54401C431C079301F88C
:100C100000B046E09DF84200622808D068280ED057
:100C20006A2814D06C281FD0712810D01CE0D9F885
:100C3000001051F8040BC9F8001040B21AE0D9F8BE
:100C4000001051F8040BC9F8001000B212E0D9F8F6
:100C50000000C21D22F00702C9F80020D2E90001FD
:100C60000832C9F8002006E0D9F8001051F8040B4A
:100C7000C9F80010C117CDE90201002902D5079873
:100C80002D210AE0BDF84000810702D507982B21ED
:100C900003E0C00705D50798202112AA1154401C73
:100CA000079012A8079901440591594602A800F03F
:100CB0004DF816E001200790D9F8000050F8041B09
:100CC000C9F800008DF848100BE001212522BBF186
:100CD000000F07918DF8482003D0022207928DF86B
:100CE00049B00F9D07990A986D1A08992D1A0B980B
:100CF0006D1A09992D1A0C986D1A9DF840102D1A2D
:100D000048073FF5DFAA2021002D8DF800107FF75E
:100D1000D9AA309E2C46FFF7C9BA4FF0FF3031B048
:100D2000BDE8F08FCBCCCC0C686A6C747A4C0000B8
:100D30007072696E74665F733A2062616420257315
:100D400020617267756D656E740000002DE9FC47C7
:100D500007468A463C6950466F2808BF082505D0DB
:100D6000FFF78EF9782814BF0A251025D7E900016E
:100D70003C2680468946BAF1640F18BFBAF1690F64
:100D800005D1002903D5D8F1000869EB4909B9F16B
:100D9000000F08BFB8F1000F0CD1386B50B9082D07
:100DA0003AD197F83800010736D530223B2684F82F
:100DB0003B2031E08DF800A0404649462A46EB171B
:100DC00000F03AFE3032D0B2761E3A2801960EDAA2
:100DD000A255404649462A46EB1700F02DFE8046B4
:100DE0005FEA010908BFB8F1000F05D108E09DF8DE
:100DF00000001218513AEBE7F868A1198842DBD3DA
:100E0000082D09D197F83800010705D5A05D3028D5
:100E100002D0761E3020A055C6F13C03BB61A1195B
:100E2000F960386B834208DAC31A3B624FF6EF7001
:100E3000398F01403987BDE8F38700280ED597F830
:100E4000380000F01400102808D17A6B7969386AEC
:100E5000521A121AD21A002AC8BF3A62BDE8F387A2
:100E60002DE9D04306460F4614464FF00008DFF840
:100E7000449012E0E00707D542464B4630463946DB
:100E800000F004FD06460F464046494642464B46A2
:100E900000F0FCFC641080468946002CEAD1304604
:100EA0003946BDE8D0830000A08601000000F03F75
:100EB00084D7974100002440F8B505460E461746F2
:100EC0001C4600205CB117F8011BB068A847B06051
:100ED00030B1F06A401CF0620020641EF3D1F2BD14
:100EE0004FF0FF30F2BD00007072696E74665F7380
:100EF0003A20256E20646973616C6C6F77656400BD
:100F00007072696E74663A2062616420256E206199
:100F10007267756D656E7400000000006E616E0092
:100F20004E414E00696E6600494E46003000F0B4F6
:100F30000246106895681318506803EB5004C00708
:100F400048BF4D44A3422DD013F8016B16F00300A7
:100F500004BF13F8010BC01C31090F2907D113F886
:100F6000011B0F3103E013F8017B05F8017B401EE4
:100F7000F9D10029E6D013F8010BC6F38106032E40
:100F800008BF13F8016B00EB0620404228440026FE
:100F9000B71E8F421EBF10F8017B05F8017B761C3F
:100FA000F6D1CFE7F0BC02F10C007047C9B202786D
:100FB0008A421AB11CBF10F8012FF9E718BF0020B0
:100FC00070470268531C03601170704780B500B908
:100FD00006A005490B681BB122220021984701E0B9
:100FE00000F042FE222002BD28090208636F6E73E2
:100FF000747261696E742068616E646C65723A2007
:10100000626164206D6573736167650000F10103BF
:10101000810704D010F8011B820781B1FAD1026860
:10102000A2F10131914311F0803104BF50F8042F37
:10103000F6E709BAB1FA81F100EBD100401CC01A01
:1010400070470000C9B2830706D0521E22D310F8A1
:10105000013B9942F7D11FE0083A13D302F1040291
:1010600041EA012141EA014150F8043B121F21BF2E
:101070004B40A3F1013C2CEA030C1CF0803FF3D061
:10108000C9B2001F083210F8013B521E28BF91EA76
:10109000030FF8D818BF0120401E704762B38B07BA
:1010A00008D0521E11F8013B00F8013B00F02480EB
:1010B0008B07F6D1830740F0208000BF103A07D39A
:1010C00030B4B1E83810103AA0E83810F9D230BC8A
:1010D000530724BFB1E80810A0E8081044BF51F836
:1010E000043B40F8043BD20724BF31F8022B20F820
:1010F000022B44BF0B7803707047121F17D35B009D
:1011000009D151F8043B20F8023B1B0C121F20F8B8
:10111000023BF6D20BE051F8043B00F8013B1B0AFE
:1011200020F8023B1B0C121F00F8013BF3D238BF22
:10113000121D521E24BF11F8013B00F8013BF8D8E4
:101140007047000010B5144600F002F8226010BD90
:10115000C1F30A5343B14A0012F5001F28D2A3F28B
:10116000FE32A1EB0251704750EA410C20D001F051
:10117000004C31EA0C01B1FA81F204BFB0FA80F3FD
:10118000D2180B3AB2F120032CBF00FA03F19140C0
:1011900041EA0C013EBFC2F1200C20FA0CF31943C6
:1011A0009040524240F2FD33D21A01EB0351704796
:1011B0000022704741EA030C50EA4C0C52EA0C0C36
:1011C0004FF4001C09D307D01CEB410F9CBF1CEB54
:1011D000430F8B4208BF824270471CEB430FFBD882
:1011E000994208BF9042704741EA030C50EA4C0C08
:1011F00052EA0C0C4FF4001C09D307D01CEB410F32
:101200009CBF1CEB430F994208BF904270471CEBF8
:10121000410FFBD88B4208BF82427047124254D420
:1012200040F2FF7C1CEA11530FD0634531D09B186C
:1012300063453CBF01EB0251704701F0004141EAB8
:101240000C510020AFF30080704750EA410320D0DA
:1012500001F0004C91EA0C011CD0B1FA81F30B3B78
:101260009A420DD9D21A994051EA0C01C3F1200CCF
:1012700020FA0CFC61449840531C40F2FF7CD7E7F5
:10128000914041EA0C01C2F1200C20FA0CF3194301
:1012900090407047B0FA80F31533202BE0D3202A1A
:1012A000EED3203A203B9A4209D9D21A00FA03F130
:1012B00041EA0C010020531C40F2FF7CB8E700FA21
:1012C00002F141EA0C0100207047524240F2FF7CDB
:1012D0001CEA11530DD06345DBD0B2EB030C3CBFCD
:1012E000A1EB025170470CF1010221EA035141F4D4
:1012F000801150EA410CCCD001F0004C352A27DC9B
:1013000030B481EA0C01B2F1200309DAC2F1200302
:10131000044601FA03F5D0402843D1409C400CE03C
:10132000C3F12002450020FA03F418BF44F0010481
:1013300021FA03F091400C43002174F1004550F173
:10134000000051EB0C01244230BC7FF47BAF7047AE
:101350006146002076E70000C1F30A5340F21E42C6
:10136000D31A0CDDCA0283F3070342EA505242F05B
:101370000042DA4002EBE17282EAE17070476FEA04
:10138000E17203F2E13008B182F0004070470000E2
:1013900010F0004160B148BF4042B0FA80F2904086
:1013A000D21CC2F5846241EA025202EBD021400510
:1013B00070470000841A71EB030604D26E40001BD4
:1013C000B141121973414FF4001C1CEB410F34BFA3
:1013D0007CEB430683E00C0DA4EB1356362E00F392
:1013E0007C80012E45EAC32341DC43EA525312BFFD
:1013F000D20292025B08240545EAC12141EA50511C
:10140000D2EBC020994125D407D1B0FA80F610FA6A
:1014100006F162D00020203608E0B1FA81F6B14032
:10142000C6F1200220FA02F21143B0404FEAF474F0
:10143000B4EB465434F001064FEA74040AD8D6F5EA
:101440000016760D04F00044F04061FA06F25040B8
:10145000F1404840C00A40EA415021F0004128BF15
:101460005FEA500550F1000044EBD12135E0DB0A82
:1014700045EAC121C90AB6F120050EDD42EA024261
:10148000120CC5F1200603FA06F6EB4042EA060507
:101490006D42984161F100010DE062FA06F5F240FB
:1014A000554063FA06FC82EA0C02F3405A406D4252
:1014B000904161EB030111F4801F05D1641E6205A8
:1014C00002D06D004041494121F48011430875F17B
:1014D000004350F1000041EB045170BC70471CEB1D
:1014E000410F15D223F0004352EA43060BD04FEAD6
:1014F0004C0CBCEB410F04D80C0D661E342EB7DD2E
:10150000EBE7801A994150EA410608BF0021E4E761
:1015100008BF1CEB430F28BF6FF00001DDE70000A0
:1015200070B491EA030F4FF000457FF543AF6B4075
:10153000841A71EB030603D2001BB14112197341E7
:101540004FF4001C1CEB410F34BF7CEB430442E022
:101550000C0DA4EB1356352E4FDC45EAC323DB0AF2
:1015600045EAC121C912B6F120050DDD63FA05F681
:10157000EB4086EA0305124218BF45F00105C0188A
:1015800051F100010CD213E062FA06F5F240554029
:10159000F3415A40B340F3405A408018594107D3B1
:1015A00049085FEA30005FEA350528BF45F00105CC
:1015B00001F58011420875F1004250F1000041EB45
:1015C00004514E0016F5001F70BC38BF7047002054
:1015D000090D090570471CEB410F10D252EA430672
:1015E0000BD0BCEB410F05D80C0DAB43661E342E5F
:1015F000B6DD02E0AB438018594170BC704770BC47
:1016000070470000F0B540F2FF7581EA030C0CF062
:10161000004C15EA11541DBF15EA1357AC42AF42F6
:10162000E5E0BC41C1F31301C3F31303801A9941F0
:1016300043F4801304D2641E0018494180185941B4
:10164000C90241EA5051B1FBF3F603FB1611A2FBAC
:101650000675D7EBC020A94102D2761E80185941E9
:10166000C90241EA5051B1FBF3FE03FB1E11A2FB7C
:101670000E75D7EBC020A94103D2AEF1010E801840
:101680005941890241EA9051760546EA8E2EB1FB16
:10169000F3F603FB1611A2FB0675D7EB8020A941D8
:1016A00002D2761E80185941C90241EA50514EEAD1
:1016B000060EB1FBF3F603FB1611A2FB0675D7EB82
:1016C000C020A94102D2761E80185941C90241EAC0
:1016D0005051B1FBF3F703FB1711A2FB0735D3EB16
:1016E000C020A94167F100070CBF004247F0010785
:1016F00066F3D5274FEA1E31B80814F5806412DD71
:10170000BD0775F1004250EB0E5051EB045111F53D
:10171000801F5CBF41EA0C01F0BD4CF07F6141F0DD
:10172000E0410020F0BDBD076D0840EA0E5041F4D5
:101730008011D4F10104B4F120060ADAC4F12006C4
:101740000200E04001FA06F3E1401843B2401543BD
:101750000EE0342C13DCC6F1200445EA40056D0888
:1017600020FA06F2154321FA06F0A1400D430021AC
:1017700075F1004250F1000051EB0C01F0BD00206A
:101780005FEA0C01F0BDCFB992185B41B3FA83F761
:1017900004BFB2FA82F6BF190B3FB7F120062FBF84
:1017A00002FA06F3BB40C7F1200622FA06F638BF5C
:1017B0003343BA401CB1E419641E33E77F4231F071
:1017C0000041B1FA81F404BFB0FA80F6A4190B3CD1
:1017D000B4F120062FBF00FA06F1A140C4F12006A3
:1017E00020FA06F638BF3143A0403C1B1AE7AC4252
:1017F0001ABF05EA1357AF4212E050EA41061CBF78
:1018000052EA4306BFE750EA4107304661461CBF33
:1018100041EA0551F0BD52EA430C08BFC143F0BD97
:1018200000204FF4001616EB410F98BF16EB430F44
:1018300008BF16EB410F24BFC14305E016EB430F71
:101840000CBF61464CEA0551F0BD0000400D40F26E
:101850001E4C40EAC120BCEB115C40F0004003D4B8
:101860008CF30701C84070476FEAE17070470000D1
:1018700050B1B0FA80F18840C91CC1F584610905F6
:1018800001EBD021400570470146704730B540F26A
:10189000FF7C1CEA11541DBF1CEA135564456545C5
:1018A0003FE0641981EA030C6FF35F530CF0004CC6
:1018B00043F48013C90241F0004141EA505EC50281
:1018C0001100A5FB020200284FF00000EEFB0120F2
:1018D0004FF00001E3FB052118BF42F00102401860
:1018E00000214941E3FB0E01A4F580640D0302D2FF
:1018F00092184041494154F1010470DD450872F1EC
:10190000004250F1000051EB0451A1F5801102D4C6
:1019100041EA0C0130BD40F2FF7E4CEA0E5100203E
:1019200030BD0CEA1355644518BF654581EA030CC8
:101930000CF0004C41D050EA410E1CBF52EA430E5D
:1019400002E06146002030BD24422C441BD15FEAF6
:10195000050EF6D0090302BF01460020AEF1140EB9
:10196000B1FA81F5AEEB050401FA05FE0C35C5F1BF
:10197000200100FA05F5C8404EEA000E6FF35F53F0
:1019800043F480139CE733F00043B3FA83F504BFBC
:10199000B2FA82FE75440B3D641BB5F1200E2FBFD9
:1019A00002FA0EF3AB40C5F1200E22FA0EFE38BF4C
:1019B00043EA0E03AA40641C7CE750EA410E14BFC0
:1019C00052EA430E6FF000014FF4001515EB430F80
:1019D0008EBF194615EB410F9DE7B4D830BDD4F149
:1019E0000104B4F120050FDAC4F12005520828BF24
:1019F00042F0010210FA05FE01FA05F57244E2BF59
:101A0000E0402843E1400FE0352C9ADCC5F120048A
:101A100052EA400220FA05F218BF42F0010231FA00
:101A200005F0A1400A43002172F1004250F100008C
:101A300051EB0C0130BD0000BBBBE1B1B2F5803F02
:101A400080F07E80022A1ED98C46B1FBF2F102FBA7
:101A500011C31B0443EA1043B3FBF2FC02FB1C332B
:101A600080B240EA0343B3FBF2F002FB103240EADB
:101A70000C4000237047022A05D98446B0FBF2F0DF
:101A800002FB10C270474AB105D100F001024908BB
:101A90005FEA3000704700220023704700F0E8B88A
:101AA0000B000200002100207047904271EB030CF4
:101AB000F6D3B3F5803F2FD2F0B5B3FA83F7B1FA7E
:101AC00081F4A7F10F0E3D1B5340CEF1200602FA20
:101AD0000EF2F3415340B5F10F0746D80F3C2C44AA
:101AE0004140C4F12006A040F1414140B1FBF3F672
:101AF00003FB1611A2FB0645001BA94102D2761E6C
:101B00008018594180EA010221FA0EF362FA0EF2BE
:101B100000215A403046F0BD30B4B1FBF3FC03FB6A
:101B20001C11A2FB0C45001BA94103D2ACF1010C16
:101B30008018594130BC02460B4660460021704770
:101B4000B2F1807F65D3F0B5B2FA82F7B1FA81F4D1
:101B5000C7F10F063D1B22FA06F307F1110EF24101
:101B600020355A40B5F10F07B8D94140C4F12006DD
:101B7000A040F1414140B1FBF3FC03FB1C11A2FB6F
:101B80000C45001BA94103D2BCF1010C801859413E
:101B90000F2F12D30F3FC90341EA5041B1FBF3F6B7
:101BA00003FB1611A2FB0645D4EBC030A94102D2BB
:101BB000761E8018594146EACC3C07B34140C7F134
:101BC0002006B840F1414140B1FBF3F603FB16118A
:101BD000A2FB0645001BA94102D2761E801859417E
:101BE00080EA010221FA0EF3C7F1200462FA0EF234
:101BF0000CFA07F05A402CFA04F13043F0BD80EAA9
:101C0000010221FA0EF3002162FA0EF260465A40F8
:101C1000F0BD8C46B1FBF2F102FB11C31B0243EA9B
:101C20001063B3FBF2FC02FB1C331B024CEA0020E6
:101C300043EA1063B3FBF2FC02FB1C331B024CEAC9
:101C4000002043EA1063B3FBF2FC02FB1C331B02CF
:101C50004CEA002043EA1063B3FBF2FC02FB1C32A7
:101C60004CEA002000237047012000F003B8000078
:101C70007047000080B5AFF30080024A11001820C1
:101C8000ABBEFBE72600020040B2002804D00128CA
:101C900008D003280BD00FE0202901D3012000E059
:101CA00000207047102901D30120FAE7F8E708293E
:101CB00001D30120F5E7F3E70120F2E7F8B50700CB
:101CC0000D0016001C002900380040B2FFF7DCFFB1
:101CD000012801D1012017E0380040B2022816D1B6
:101CE000B6F5803F11D2202C0FD2DFF8BC0700EBF5
:101CF00085010A6866F317220A6000EB8500016817
:101D000064F3C70101600020F2BD0120FCE77FB24F
:101D1000032F17D1B6F1807F12D2202C10D2DFF81A
:101D20008C0700EB85010A6802F0FF0252EA0622E6
:101D30000A6000EB8500016864F3C7010160E2E717
:101D40000120E1E70120DFE770B504000D00160077
:101D50003100280040B2FFF797FF012801D1012090
:101D60000EE0DFF84C17200040B251F820006DB2B1
:101D700065F3092066F3070064B241F824000020EF
:101D800070BD38B504000D002900200040B2FFF7F7
:101D90007BFF012801D1012010E0DFF81817086847
:101DA00050F0004050F0407050F47F0064B264F393
:101DB000092065F3070008600868002032BD012291
:101DC00012FA01F181607047D0F840037047D0F8F3
:101DD0000803C005C00D7047C0F840127047D0F826
:101DE0000802C005C00D7047D0F80802C0F3C0302B
:101DF000704738B505002800FFF7F1FF0400280000
:101E0000FFF7F2FF0419002C01D1012000E00020AF
:101E1000C0B232BDC0F8C81F7047D0F8C80F7047B5
:101E2000C0F8C01FD0F8C00F7047C0F8881F7047B7
:101E3000D0F8880F7047C0F8801FD0F8800F704727
:101E4000016851F000410160704770B5060001243F
:101E5000DFF86456300040B255F82000FFF7DDFF90
:101E600040071FD5300040B255F82000FFF7AFFF04
:101E7000002810D0300040B255F82000FFF7A4FF32
:101E8000DFF83816320052B288540120DFF83016DD
:101E9000320052B28854042176B255F82600FFF77A
:101EA000BFFF0FE0300040B255F82000FFF7C0FF41
:101EB000800507D54FF4007176B255F82600FFF77C
:101EC000BAFF00242000C0B270BD38B50400150070
:101ED00049B2002909D002291FD012D3042934D0D5
:101EE00027D3062949D03CD353E0DFF8D805A060BA
:101EF00001202073112060731E20A0731120208206
:101F00004DE0DFF8C405A06001202073112060734C
:101F10002220A0735C20208241E0DFF8B005A060A1
:101F200001202073112060732320A0735D20208284
:101F300035E0DFF89C05A06001202073112060735C
:101F40002120A0735B20208229E0DFF88805A060B3
:101F500001202073112060732020A0735A2020825A
:101F60001DE0DFF87405A06001202073112060736C
:101F70002520A0735F20208211E0DFF86005A060BB
:101F800001202073112060731F20A073592020822C
:101F900005E0AE22DFF84815002000F044FC6DB2E9
:101FA000002D09D0022D1FD012D3042D34D027D3F9
:101FB000062D49D03CD353E0DFF80805206000200F
:101FC0002071112060711E20A073112020824DE02D
:101FD000DFF8F404206000202071112060712220BD
:101FE000A0735C20208241E0DFF8E0042060002044
:101FF0002071112060712320A0735D20208235E0C4
:10200000DFF8CC04206000202071112060712120B5
:10201000A0735B20208229E0DFF8B8042060002054
:102020002071112060712020A0735A2020821DE0B1
:10203000DFF8A404206000202071112060712520A9
:10204000A0735F20208211E0DFF890042060002060
:102050002071112060711F20A0735920208205E09B
:10206000EA22DFF87C14002000F0DDFB31BD38B53A
:102070000400DFF84454C9B2200040B255F82000F3
:10208000FFF7AAFE200040B255F82000FFF7B1FE8E
:102090000028F7D031BD70B505000E00140006E031
:1020A0003178280040B2FFF7E2FF641E761C002C56
:1020B000F6D170BD38B504000D0007E028780100A6
:1020C000C9B2200040B2FFF7D2FF6D1C95F90000A5
:1020D0000028F3D131BD10B40022DFF8E433020050
:1020E00052B29A5C002A0AD0DFF8D023040064B20E
:1020F000125D0A70002140B21954012000E0002056
:10210000C0B210BC704770B505000C00DFF8A863C2
:10211000280040B256F82000FFF78AFE4008400031
:102120000100280040B256F82000FFF77EFE28008C
:1021300040B256F82000FFF77BFE30F002000100AD
:10214000280040B256F82000FFF76FFE280040B28A
:1021500056F82000FFF76CFE30F020000100280048
:1021600040B256F82000FFF760FE280040B256F853
:102170002000FFF75DFE30F040000100280040B273
:1021800056F82000FFF751FE280040B256F8200014
:10219000FFF74EFE30F010000100280040B256F864
:1021A0002000FFF742FE280040B256F82000FFF75B
:1021B0003FFE30F480700100280040B256F8200045
:1021C000FFF733FE280040B256F82000FFF730FE3C
:1021D00030F480600100280040B256F82000FFF77C
:1021E00024FE002C0ED0280040B256F82000FFF745
:1021F0001FFE50F4007001006DB256F82500FFF785
:1022000014FE0DE0280040B256F82000FFF710FE43
:1022100030F4007001006DB256F82500FFF705FE9E
:1022200070BD70B505000C00DFF88C62280040B26C
:1022300056F82000FFF7F1FD40084000010028009B
:1022400040B256F82000FFF7E5FD280040B256F8EE
:102250002000FFF7E2FD30F008000100280040B246
:1022600056F82000FFF7D6FD280040B256F82000AF
:10227000FFF7D3FD30F020000100280040B256F8EF
:102280002000FFF7C7FD280040B256F82000FFF7F6
:10229000C4FD30F480700100280040B256F82000E0
:1022A000FFF7B8FD280040B256F82000FFF7B5FD53
:1022B00030F400700100280040B256F82000FFF70B
:1022C000A9FD280040B256F82000FFF7A6FD30F423
:1022D00000600100280040B256F82000FFF79AFD88
:1022E000002C0ED0280040B256F82000FFF795FDD4
:1022F00050F0040001006DB256F82500FFF78AFD8A
:102300000DE0280040B256F82000FFF786FD30F0BF
:10231000040001006DB256F82500FFF77BFD70BD8B
:102320002DE9F841A7B005000F0016002800310084
:10233000C0B2C9B2884201D1012000E000201C00D7
:10234000DFF89C8140F2E1124146C0B200F06BFA26
:1023500028002100C0B2C9B2884201D1012000E0AA
:1023600000204FF4F1724146C0B200F05CFA02A8BE
:10237000142100F0D9FA342100220DF168084046FA
:1023800000F0D6FA4C2100220DF11C08404600F066
:10239000CFFAFF003A00002352480121FFF74CFB1F
:1023A0000700220052B2310049B202A8FFF78DFDAA
:1023B00008201B909DF80D008DF870001AAA9DF85A
:1023C0000C10029800F073FB9DF80C100298FFF7B8
:1023D000F6FC06201B909DF815008DF870001AAAD7
:1023E0009DF81410049800F062FB0020079008206C
:1023F00008900820099002200B9000200C900020EB
:102400001290002014902C4C280040B254F8200068
:1024100000F0D0FC3448290049B2382211FB02F107
:1024200000EB010207A9280040B254F8200000F098
:102430007FFB280040B254F82000FFF701FD2A007E
:10244000D2B203219DF91600FFF77EFC17F01F039F
:10245000C7F357122900C9B20320FFF72FFC290048
:10246000C9B20320FFF78DFC0021280040B2FFF71E
:10247000D8FE0021280040B2FFF745FEBDF9180044
:10248000ADF800000720ADF8020001208DF804002F
:10249000002216486DB250F82510684600F028FD5D
:1024A00028B0BDE8F081000000180040001C00408A
:1024B000000C0040000400401C060208F808020856
:1024C0000009020800003140000331408003314020
:1024D00080063140000731400001314000093140A1
:1024E0007046081000002D313C0602080006020864
:1024F00082B000200190002000900020019009E0AF
:102500000098401C00900098B0F5005FF8D3019847
:10251000401C01900198B0F5805F02D2002000902D
:10252000F1E702B0704780B501000020FFF7C2FD5F
:1025300001BD2DE9F043ADF5137D07008846160077
:102540001C000020ADF802000020ADF800000020C3
:1025500002900020ADF804000020ADF806004046CF
:10256000FEF754FD0290DFF888532888002801D038
:1025700028698047DFF87C030078002800F0368166
:102580002888002800F01481BDF90600411CADF830
:1025900006103A00010089B20020EB6898474746D0
:1025A0004046FEF733FD02906888A97990FBF1F070
:1025B000ADF804003800471C90F900000028F9D15C
:1025C0000020ADF8000010E07F1E97F900002F28D2
:1025D00003D097F900005C2804D1BDF80000401C2E
:1025E000ADF800000298401E0290BDF800000228DD
:1025F00002DA02980028E7D50298002806D47A1C4F
:10260000DFF8F41253A800F08FFC0EE0BDF80000D4
:10261000002805D13A00B94953A800F085FC04E030
:102620003A00B54953A800F07FFC0020ADF8020045
:1026300042E0BDF80010BDF80020BDF8023053AFF5
:102640009BB2BDF90400434313FA82F0385C43AAFD
:1026500089B25054BDF80000401CADF80000BDF830
:10266000000080B2BDF9041088420EDA53A8FEF7CC
:10267000CDFCBDF80020BDF802309BB2BDF90410BE
:102680004B4313FA82F18842D3D2002043A9BDF80C
:1026900000208854BDF90600411CADF8061043AA7D
:1026A000E97911FB00F189B20020EB689847BDF889
:1026B0000200401CADF80200BDF8027053A8FEF7FE
:1026C000A5FCBDF90410B0FBF1F0401CBFB287427D
:1026D00003D20020ADF80000C1E73200884953A8BA
:1026E00000F022FCBDF90600411CADF8061053AA0B
:1026F000E97911FB00F189B20020EB689847002CC2
:1027000074D00020ADF8020041E0BDF80010BDF823
:102710000020BDF802309BB2BDF90400434313FA18
:1027200082F0205C43AA89B25054BDF80000401CDE
:10273000ADF80000BDF8000080B2BDF90410884279
:102740000EDA2000FEF762FCBDF80020BDF8023072
:102750009BB2BDF904104B4313FA82F18842D4D2E4
:10276000002043A9BDF800208854BDF90600411C93
:10277000ADF8061043AAE97911FB00F189B20020F7
:10278000EB689847BDF80200401CADF80200BDF8A8
:1027900002602000FEF73AFCBDF90410B0FBF1F036
:1027A000401CB6B2864221D20020ADF80000C1E73D
:1027B0004FF4807100220DF10C09484600F0B8F882
:1027C0003800A9688847002C07D00094330042469F
:1027D0004C4903A800F0A8FB05E0330042464A49F3
:1027E00003A800F0A1FB03A8A96888470DF5137D95
:1027F000BDE8F08310B53F480078002809D0444C6C
:1028000021000020FFF767FC012221003F4800F073
:10281000B8FB10BD10B51400220052B20020FFF723
:102820003AFC200010BD38B50C001500C0B20028DD
:1028300003D138480078002800D131BD36490878E6
:10284000002800D0FEE70878401C087000F044FB28
:1028500000232A0021003148FFF76BFEFFF748FEF6
:10286000F6E7002101804FF6FF7141808180FF2152
:102870008171C171002181600021C160002101616D
:1028800070471B4902880A8042884A8082888A8071
:1028900082798A71C279CA7182688A60C268CA60A4
:1028A00000690861012013490870704700B585B0C0
:1028B0006846FFF7D6FF1A4802906846FFF7E1FF27
:1028C00005B000BD80B5FFF7F1FF002300225FF4E3
:1028D000E1310020FFF724FD4023124A00210B487C
:1028E00000F021FC01210020FFF79BFC01BD00004E
:1028F000E40802082E090208D0490810B04908105F
:10290000DC4908101449081080490810A40802087E
:102910002F0902083906020830090208C0490810C8
:102920002725081034080208002200F01DBC000012
:1029300062F30F2262F31F42401810F0030308D025
:10294000C91A1FD3DB0748BF00F8012D28BF20F8A4
:10295000022D130030B414461546103928BF20E963
:102960003C00FAD8490728BF20E90C0048BF40F8CE
:10297000042D890028BF20F8022D48BF00F8012D42
:1029800030BC7047C91818BF00F8012DCB0728BF0D
:1029900000F8012D7047000030B4624B1818C009D0
:1029A000614C14EB001404290DD223681F25C800C4
:1029B0008540AB4352B212F01F02C90012FA01F176
:1029C000194321600CE0091F63681F25C80085407A
:1029D000AB4352B212F01F02C9008A401A43626030
:1029E00030BC7047002A04D1012212FA01F1416083
:1029F00003E0012212FA01F18160704710B48900EE
:102A0000436C0F248C40A34312F00F0212FA01F121
:102A10001943416410BC704710B4836C01248C408E
:102A2000A34312F0010212FA01F11943816410BCB0
:102A3000704710B4C36C01248C40A34312F0010210
:102A400012FA01F11943C16410BC704710B4490077
:102A50001031C36C03248C40A34312F0030212FA1A
:102A600001F11943C16410BC70474269012212FA96
:102A700001F141614069704710B4836901248C40C1
:102A8000A34312F0010212FA01F11943816110BC53
:102A9000704710B44900036C03248C40A34312F028
:102AA000030212FA01F11943016410BC7047F8B532
:102AB00005000E0014000027002D2FD0002C2DD073
:102AC000226831002800FFF78DFF94F908203100BB
:102AD0002800FFF761FF626931002800FFF79CFFC3
:102AE000A26931002800FFF7A4FFE2693100280045
:102AF000FFF7ACFF626831002800FFF77FFFE26854
:102B000031002800FFF7C5FF31002800FFF7ADFFB7
:102B1000226931002800FFF7AFFF00E0034F3800C3
:102B2000F2BD00000000CFBF0000304001005A009D
:102B30002DE9F44FDFF8D822DFF8D8321B68DFF830
:102B4000D8422468DFF8D4522D68DFF8D4623668A2
:102B5000DFF8D0723F68DFF8D0C2DCF800C0DFF8E1
:102B6000CCE2DEF800E0DFF8C882D8F80080DFF8B9
:102B7000C492D9F80090DFF8C0A2DAF800A00028CB
:102B800000F01581002900F012810A68022A06D19E
:102B900091F82620002A02D15FF0000B03E0D1F863
:102BA00004B0BBF1010B91F82420002A01D00122CE
:102BB00000E0002262F3104333F440436BF303035D
:102BC000022262F3196303600A7812F0030262F3CF
:102BD0001964046491F82520002A01D0012200E044
:102BE000002262F38615CA7E002A01D0012200E08D
:102BF000002262F38A254A7E002A01D0012200E0E9
:102C0000002262F308258A7E002A01D0012200E01A
:102C1000002262F349258A6B521E12F00F0262F302
:102C200013450A69521E12F00702ED08ED00154324
:102C30004A6962F304154A69520862F345158564CE
:102C40000A7B002A01D0012200E0002262F308265C
:102C50000A7E002A01D0012200E0002262F3492608
:102C60008A68521E12F01F02760976011643C0F8D8
:102C700000630A7F02F0FF023F0A3F02174391F808
:102C8000202002F0FF0262F31747C0F8107391F89A
:102C90002720002A01D0012200E0002262F3082C44
:102CA0000A69521E12F007025FEADC0C5FEACC0CE4
:102CB00052EA0C0C4A6962F3041C4A69520862F336
:102CC000451CC0F844C00A7B002A01D0012200E064
:102CD000002262F3082E8A68521E12F01F025FEA79
:102CE0005E1E5FEA4E1E52EA0E0E0A68012A01D1EC
:102CF000012200E0002262F3104EC0F800E291F8D9
:102D00003C2002F0FF025FEA18285FEA082852EA36
:102D10000808C0F8048391F82820002A01D0012275
:102D200000E0002262F35969CA6A012A01D1012236
:102D300000E0002262F318694A6B012A01D10123E5
:102D400000E00023009A63F3104991F8303003F05B
:102D5000FF035FEA19295FEA092953EA0909C0F864
:102D6000509091F8443003F0FF035FEA1A2A5FEABB
:102D70000A2A53EA0A0AC0F804A28B6CC0F8883FFA
:102D8000096CC0F8C81F002A10D000205060002035
:102D90001060002090600020D060002010620020B1
:102DA000D06200201063DFF894005063002210000E
:102DB000BDE8F28FDFF8881001605FF44011016414
:102DC0000021816440F20711C0F800130022C0F80E
:102DD00004230022C0F8102300224264C0F800122D
:102DE0000021C0F80412002101650021C0F8C81EAE
:102DF0000021C0F8881E0021C0F8C81F0021C0F8BB
:102E0000881F0021C0F8081F0021C0F8481F704724
:102E10000160AA001C4A0810204A0810244A081021
:102E2000284A08102C4A0810304A0810344A081062
:102E3000384A08103C4A0810404A0810EFCDAB0051
:102E40000F000003010009B2002908D4012210F08C
:102E50001F018A401B4900B2400941F820207047F9
:102E6000010009B2002908D4012210F01F018A4094
:102E7000154900B2400941F820207047020012B203
:102E8000002A04D44901114A00B2115407E0490153
:102E90000F4A00B210F00F00104400F8041C7047F5
:102EA000002800D162B60B480168491C01607047D8
:102EB00072B608490868002802D00868401E0860F9
:102EC0000868704700E100E080E200E000E400E014
:102ED00018ED00E02409020880B5FFF7E9FF00F0D3
:102EE0005DF901BD80B5C9B200B2FFF7C7FF01BDF2
:102EF00070B504000D001600200000F05FF92900F5
:102F0000B4F9000000F076F93100C9B2B4F902005A
:102F1000FFF7E8FFB4F90200FFF7A2FFB4F90200DF
:102F2000FFF790FF70BD00000CB430B583B00A46C7
:102F300006A90291044600250194009502AB01A95F
:102F4000084878441E30FDF79EF8019A1570002855
:102F50004EBF04460198041B204603B030BC5DF808
:102F60000CFB00BF5FE0FFFF82688918816003E00F
:102F700082684169521A8260816842699142F7D23F
:102F800070472DE9F84305001600002D01D00120FF
:102F900000E000200C00AA22DFF8C811C0B2FFF741
:102FA00042FC00270020002C01D10327B7E028783D
:102FB00010F0050F01D00427B1E0287850F004008C
:102FC00028702869B042C0F0A580D5F81480A868A0
:102FD000B8EB0008B04568D295F90100002803D08D
:102FE000022841D01FD391E0424621006868AB68B7
:102FF00000EB03094846FEF751F841462800FFF769
:10300000B3FFB6EB080204EB08016868AB6800EB9D
:1030100003042000FEF742F8B6EB080841462800FA
:10302000FFF7A2FF72E05FEA480221006868AB6820
:1030300000EB43094846FEF731F841462800FFF708
:1030400093FFB6EB0802520004EB48016868AB68D6
:1030500000EB43042000FEF721F8B6EB08084146D8
:103060002800FFF781FF51E05FEA880221006868CD
:10307000AB6800EB83094846FEF710F8414628008C
:10308000FFF772FFB6EB0802920004EB8801686854
:10309000AB6800EB83042000FEF700F8B6EB0808ED
:1030A00041462800FFF760FF30E095F90100002855
:1030B00003D002281DD00ED328E03200210068681A
:1030C000AB6800EB03042000FDF7E8FF31002800A7
:1030D000FFF74AFF1AE0720021006868AB6800EB56
:1030E00043042000FDF7DAFF31002800FFF73CFF22
:1030F0000CE0B20021006868AB6800EB830420009C
:10310000FDF7CCFF31002800FFF72EFF2869861B52
:103110002E6100E00527287810F0FB0028703800A9
:1031200040B2BDE8F283F8B504000E0017001D00A0
:10313000002C01D0012000E000204FF40772094963
:10314000C0B2FFF770FB002067600021217066703D
:103150000021A1600021E1602561656140B2F2BDFE
:10316000000000000C46081000B500BF1300964692
:103170009446103928BFA0E80C50FAD85FEA417C89
:1031800028BF0CC048BF40F8042BC90728BF20F84F
:10319000022B48BF00F8012B00BD0000002007E013
:1031A0000549C2018A5822F00042C301CA50401C9E
:1031B0003F28F5DB70470000000038400100002088
:1031C000124A1368002913D08A7812F00702DB082C
:1031D000DB0013430A79002A01D0012200E000221B
:1031E00062F3DF730A4AB1F9001042F8213000E0BF
:1031F00005487047074B1A68002A03D01A6800B2C6
:1032000042F820107047000001005600444A0810A0
:1032100000A02040FC050208DFF8E8110868C0F3B0
:103220004000002801D0022002E0086810F00100F0
:103230007047DFF8D401006810F00100704700000B
:10324000002801D0022801D3012002E0401E0860BE
:10325000002070471CB5FF246946FFF7F1FF40B21C
:10326000002802D02000C0B207E0DFF8A0010099DA
:1032700050F8210010F00100C0B216BDDFF8E401E3
:103280000068800810F001007047000038B50400A5
:10329000200040B2032811D3DFF8C0511822DFF814
:1032A0007011280000F0F4FA0020E87540F649009B
:1032B000DFF8AC110860002000F022FBDFF8A81155
:1032C000200040B251F82000C0F30020002805D0B3
:1032D00064B251F8240010F00F0000E0FF2032BD6E
:1032E00038B50400200040B2032811D3DFF86C5138
:1032F0001822DFF81C11280000F0CAFA0020E87537
:1033000040F67E00DFF858110860002000F0F8FA5F
:10331000DFF8540164B250F82400C0F3011040B249
:1033200032BDDFF848010068C0F30720704738B5A8
:103330000400042C11D3DFF824511822DFF83811CF
:10334000280000F0A5FA0020E87540F29510DFF89B
:1033500010110860002000F0D3FADFF8180150F8CF
:10336000240010F00700010009B2042907D1DFF89A
:10337000000150F8240010F01F0050F4807000B2DB
:1033800032BDDFF83C1209688A03920B0260090E15
:1033900011F00101C171DFF8201209680A00D2049E
:1033A000D20C82800A00120C02F0FF020281090C8A
:1033B00001F0FF014181DFF8C410096811F00F022C
:1033C00002730A00C2F3031242730A00120AD20403
:1033D000D20CC281090F11F003010174DFF8DC1176
:1033E00009680A00120A12F0070282710A00120C20
:1033F000D205D20D4282890F11F00101017570478B
:1034000000000000241526404015264040162640A6
:10341000244508101CB50C006946FFF711FF010098
:1034200049B2002901D040B217E0DFF858030099F3
:1034300050F8210010F07F012160C0F30421616089
:10344000C0F30441A1600100090F11F00301617391
:10345000C00E10F001002073002016BD8C08020879
:1034600008090208100027404012264008002040AA
:1034700000012640001226409845081038152640C5
:1034800080B50100DFF8E4031822FDF717FE0120E4
:10349000DFF8DC130870002002BDDFF8D8130968DC
:1034A000C90F002908D0DFF8C8130978002907D10F
:1034B0000021016003207047002101600320FAE72A
:1034C000DFF8A813096801600020F4E710B50400D4
:1034D000FFF7A2FE002803D10020206003200DE0AA
:1034E000DFF88C030078002805D0DFF880038068BF
:1034F0002060002002E000202060032010BD0000BA
:10350000DFF86C130978002905D0DFF860134968EB
:103510000160002002E000210160032070470000EC
:10352000DFF854130968C90F002908D0DFF84013E9
:103530000978002907D1002101600320704700218C
:1035400001600320FAE7DFF82413C9680160002056
:10355000F4E7DFF828130968C90F002908D0DFF85D
:1035600010130978002907D100210160032070475A
:10357000002101600320FAE7DFF8F0120969016019
:103580000020F4E710B50400FFF778FE002803D10F
:103590000020206003200DE0DFF8D402007800282E
:1035A00005D0DFF8C80240692060002002E000205A
:1035B0002060032010BD0000341526403C15264035
:1035C0003015264010B50C00C0B2FFF7B0FE002841
:1035D0000ED0012810D0022812D0B0F5887F13D069
:1035E00040F21111884213D0B0F58A7F14D017E051
:1035F0002000FFF752FF16E02000FFF781FF12E0E6
:103600002000FFF763FF0EE02000FFF789FF0AE0CC
:103610002000FFF7B7FF06E02000FFF79AFF02E067
:1036200000202060032010BD80B501000020FFF7BE
:10363000C9FF02BD80B50022D2B2824203D200206F
:103640000860012003E0401CC0B2FFF7BBFF02BDD1
:1036500018B587B004006846FFF7E6FF010049B2DD
:10366000002903D00021216040B22BE001A8FFF720
:1036700088FE9DF91400022803D1009820600020E4
:1036800020E0DFF8FC010068C00F002808D0FFF739
:10369000D0FDC0B2002807D100202060032011E037
:1036A0000098206000200DE0009901984143BDF88A
:1036B0000800B1FBF0F09DF80B10491CB0FBF1F0D5
:1036C0002060002008B010BD78B585B005000C0062
:1036D00069462800C0B2FFF7ADFF010049B20029DA
:1036E00003D00021216040B249E001A92800C0B206
:1036F000401CFFF78FFE40B2002811D0DFF8846134
:103700001822DFF88411300000F0C2F80020F075B4
:1037100040F65310DFF874110860002000F0F0F854
:1037200018482900C9B250F82100C00F002807D05E
:103730009DF91100022807D10098206000201EE0AA
:103740000098206000201AE0EDB26D1C2800FFF701
:1037500081FD0100C9B2002902D0C0B2FF2803D107
:103760000020206003200AE000990198414302985C
:10377000B1FBF0F00399B0FBF1F02060002006B03F
:1037800070BD00000016264010B50023421E040044
:10379000E4B2002C03D10800FFF75AFF0CE014003C
:1037A000DBB2E4B2A34204D31000C0B2FFF78CFF37
:1037B00002E0C0B2FFF706FF10BD38B505000C00EF
:1037C000280040B2FFF762FD0100C9B2FF2904D111
:1037D0002000FFF762FE40B21BE06946C0B2FFF76F
:1037E000D3FF010049B2002903D00021216040B27B
:1037F0000FE0280040B2FFF773FD40B2002805D06B
:1038000002280BD006D303280CD00FE000982060CC
:10381000002032BD009840082060F9E70098800839
:103820002060F5E70098C0082060F1E700202060E4
:103830000320EEE71CB5040069460020FFF7BDFF3A
:10384000010049B2002903D00021216040B207E005
:10385000FFF767FD0099401CB1FBF0F020600020ED
:1038600016BD80B5FFF7E6FF02BD00007408020830
:103870002C09020818152640081526400C1526406C
:10388000301526408C0802089845081008090208DF
:1038900001B58B071AD1830724D1121F21D351F808
:1038A000043BA3F1013C2CEA030C1CF0803C04BF58
:1038B00040F8043BF1E79CFA8CFCBCFA8CF1C1F1B6
:1038C00018018B40CB4040F8043B13E0042A09D395
:1038D00011F8013B521E00F8013B5BB18B07F7D199
:1038E000D9E7121D5AB111F8013B521E00F8013BF5
:1038F00003B1F8D111001CBF0022FFF71DF801BD74
:1039000001BEFEE780B5234A23490B6893423ED0AF
:103910000A60224A12684A62214A8A6202684A6040
:1039200042688A608268CA60C2680A6102694A6144
:1039300042698A618269CA61C2690A62F1EE102A2B
:1039400012F0900F23D0174A8A62026ACA62426A52
:103950000A63826A4A63C26A8A63026BCA63426B01
:103960000A64826B4A64C26B8A64026CCA64426CE9
:103970000A65826C4A65C26C8A65026DCA65426DD1
:103980000A66826D4A66C26D8A66006EC86600F07D
:103990000BF801BDF7F6F5F4C407020828ED00E0C6
:1039A000A4A3A2A1ABAAA9A8FEE7000040B20028E8
:1039B00004D0012808D003280BD00FE0202901D320
:1039C000012000E000207047102901D30120FAE710
:1039D000F8E7082901D30120F5E7F3E70120F2E732
:1039E00070B505000E0014006400641C310028004E
:1039F00040B2FFF7DBFF012801D101200EE02800D3
:103A000040B200280DD1B4F5807F08D2674800EBA2
:103A10008600016864F30F210160002070BD012061
:103A2000FCE76DB2012D0CD1B4F5803F07D26048A0
:103A300000EB8600016864F317210160EDE70120C7
:103A4000ECE70120EAE770B504000D001600310034
:103A5000280040B2FFF7AAFF012801D101200DE0A4
:103A60005449200040B251F820006DB265F309209E
:103A700066F3070064B241F82400002070BD38B539
:103A800004000D002900200040B2FFF78FFF01283D
:103A900001D101200FE04849086850F0004050F083
:103AA000407050F47F0064B264F3092065F30700AE
:103AB00008600868002032BDF8B504004FF4FA50E1
:103AC00044433E4D3E4E00212878C001304400F072
:103AD0004AF914E02878C001304400F046F9B842B1
:103AE000F8D3384F3C192878C001304400F03DF934
:103AF0003F1839002878C001304400F034F94CF206
:103B00005137BC42E6D22878C001304400F02DF98C
:103B10008442F8D2F1BD38B594B0502100226C46F1
:103B20002000FEF705FF00220121274890F9000040
:103B3000FFF789FF092200210120FFF751FF002133
:103B40000120FFF79CFF5FF0FF30009000208DF810
:103B5000040000208DF8050000208DF806000020EC
:103B60008DF8080003208DF84400012012900120F8
:103B70008DF80700114C124D69462078C001284489
:103B800000F024F82078C001284400F0E7F8002174
:103B90002078C001284400F0E6F82078C0012844CD
:103BA00000F0E5F815B030BD000000000010004046
:103BB00000140040000C0040000400403B060208D6
:103BC00000003940B03CFFFF3A06020810B4012261
:103BD00091F94C30052B03D291F94D30052B01D3CF
:103BE0001000AFE0002800F0AC80002900F0A980B0
:103BF000554A126891F9053063F392428B7913F0BC
:103C0000030363F311420B7A13F0070363F31A62A1
:103C1000CB7963F39E720B7D63F3000291F824303D
:103C200063F3410202600A7902F0FF0210F13003EF
:103C30001C68240A240222431A6091F90520012AF3
:103C40000DD191F90620002A02D10022826008E0FD
:103C500091F90620012A04D10A68826001E001225C
:103C60008260CA6802610A694261CA6982610A6A3D
:103C7000C2610A680262354A12680B7E03F0FF03D4
:103C8000120A12021A4391F8303003F0FF0363F373
:103C9000174291F8403003F0FF0363F31F6291F87D
:103CA000483003F0FF0363F30F224264284A12688E
:103CB00091F8383003F0FF03120A12021A4391F808
:103CC000283003F0FF0363F30F228264214A126855
:103CD0008B7D13F00303920892001A4391F825306C
:103CE00013F0030363F38B2291F82C3013F00303DA
:103CF00063F3051291F8343013F0030363F30922E0
:103D000091F83C3013F0030363F3871291F84430C9
:103D100013F0030363F38302C2640F4A126891F83D
:103D20004C3013F00703D208D2001A4391F84D30FB
:103D300013F0070363F30612426591F915108167CA
:103D40000022100010BC7047484A08104C4A081066
:103D5000504A0810544A0810584A0810016851F097
:103D60000041016070478160704780687047403053
:103D7000016851F010010160704700001CB540B2AD
:103D8000002805D1654C69460520FEF7A4F904E03A
:103D9000634C69460620FEF79EF9C0B200284ED05B
:103DA0009DF80000A52804D1E079A52801D00020C5
:103DB000A073A07B411CA1739DF80010C0B22044E9
:103DC000C171A07B07283ADBE079A5282FD100201C
:103DD000E073002106E0E27B04EB0100C079821869
:103DE000E273491C0629F6DBE07B617B884215D132
:103DF000207A022809D1607AA17A51EA0021218231
:103E0000E07A217B51EA002161820020A073072122
:103E10000022E41D2000FEF78BFD10E00020A073BF
:103E200007210022E41D2000FEF782FD07E00020AC
:103E3000A07307210022E41D2000FEF779FD13BDC9
:103E400010B50B00010049B2002901D1334900E04F
:103E50003349A5240C7001244C701C0024B2241298
:103E60008C70CB7013001BB21B120B714A710022B5
:103E70008A71002304E08C79CA5C14198C715B1C74
:103E8000062BF8DB40B2002804D107220520FEF7FC
:103E900002F903E007220620FEF7FDF810BD80B509
:103EA000010049B2002901D11C4900E01C49A522AA
:103EB0000A7002224A7000228A700022CA70002210
:103EC0000A7100224A71A7228A7140B2002804D1E7
:103ED00007220520FEF7DFF803E007220620FEF7A1
:103EE000DAF801BD38B540B2002801D10B4C00E032
:103EF0000B4C0721002225002800FEF719FD0721A1
:103F00000022E51D2800FEF713FD0020A07300200D
:103F1000E073002060820020208231BDBC080208CE
:103F2000D008020810B50400200040B2002819D1C2
:103F3000052305225FF4E1210520FEF7F1F90121B7
:103F40000520FEF76EF9200040B2FFF7CBFF0022FC
:103F50000021200040B2FFF773FF200040B2FFF7BE
:103F60009EFF18E0062306225FF4E1210620FEF7FB
:103F7000D7F901210620FEF754F9200040B2FFF7DF
:103F8000B1FF00220021200040B2FFF759FF2000BE
:103F900040B2FFF784FF10BD010009B2002908D428
:103FA000012210F01F018A404F4900B2400941F838
:103FB00020207047FEE780B54C4800684C480168F7
:103FC0000800C00F002805D04A488905890D50F81F
:103FD000210080470020FFF7DFFF01BD80B5464884
:103FE0000068464801680800C00F002805D0414815
:103FF0008905890D50F8210080470120FFF7CCFF8B
:1040000001BD80B53E4800683E4801680800C00F09
:10401000002805D037488905890D50F821008047D0
:104020000220FFF7B9FF01BD80B537480068374867
:1040300001680800C00F002805D02E488905890DA9
:1040400050F8210080470320FFF7A6FF01BD80B58F
:104050002F4800682F4801680800C00F002805D0CD
:1040600024488905890D50F8210080470420FFF776
:1040700093FF01BD80B52848006828480168080002
:10408000C00F002805D01B488905890D50F8210074
:1040900080470520FFF780FF01BD80B520480068FC
:1040A000204801680800C00F002805D01148890584
:1040B000890D50F8210080470620FFF76DFF01BDF4
:1040C00080B519480068194801680800C00F002829
:1040D00005D008488905890D50F821008047072040
:1040E000FFF75AFF01BD000080E200E0FC49081024
:1040F0000001204000000208004A0810040120408E
:10410000044A081008012040084A08100C01204009
:104110000C4A081010012040104A081014012040D9
:10412000144A081018012040184A08101C012040A9
:1041300080B500F003F900F003F800F089F801BD44
:104140007CB568464F49D1E90023C0E9002300202F
:104150000AE069460200D2B201EBC2014968491C7B
:1041600011F0070F0DD1401C0100C9B2002909D17F
:1041700069460200D2B211F8321011F0070FE8D0F0
:10418000FEE7FEE7404C207810F0070F00D0FEE776
:104190003E4D2868401C10F0070F00D0FEE70026B7
:1041A00022E068463100C9B200EBC100416830002E
:1041B000C0B252F8300000F042F814E000200028AD
:1041C000EFD02168491E3000C0B252F8300000F034
:1041D00036F868463100C9B200EBC1004168286872
:1041E000401C00F02CF8761C3000C0B2002825D10D
:1041F0006A463000C0B252F83000002813D0206860
:104200003100C9B252F8311088420AD368463100F1
:10421000C9B200EBC10040682168884201D3012087
:10422000CDE70020CBE768463100C9B200EBC10002
:10423000406821688842C1D30120C0E773BD0022D5
:10424000002302E0C0E9002308308842FAD3704717
:1042500030B40F4880080F490F4A002308E01C00C3
:10426000E4B252F824401D00EDB241F825405B1C39
:104270001C000500E4B2EDB2AC42F0D30748016087
:1042800030BC7047F449081074470810784708108C
:1042900080000000000C02080000081008ED00E09B
:1042A00080B500F001F801BD38B586B068462B49ED
:1042B0001822FCF703FF6846FFF7E2F840B2002837
:1042C0000DD0274C182227492000FFF7E1FA0020E3
:1042D000E0754A20244908600020FFF711FB234DB8
:1042E0002800FFF7BEFA40B200280DD01C4C18225F
:1042F0001C492000FFF7CCFA0020E0754C201A4939
:1043000008600020FFF7FCFA1949286808600A686D
:10431000184882181848B2FBF0F0184A1060184884
:10432000096801F2E7314FF47A72B1FBF2F10160F2
:104330000068C0031349086007B030BD80B500F0C5
:1043400025F811490A6852F470020A60BFF34F8FD2
:10435000BFF36F8F00F01EF801BD00006849081020
:104360008C080208AC440810080902080C0902086D
:10437000100902083F420F0040420F0018090208CE
:10438000140902081C09020888ED00E0EFF3108010
:1043900072B6704780F310887047000070B52B48E4
:1043A00000F062F8FEF78EFA0020FFF7BBFD012057
:1043B000FFF7B8FD0AE02078401E207094F9000055
:1043C00010F1090F2DDA012008702AE064257FF032
:1043D00063061F4C94F9000010FB06F212B294F928
:1043E000000010FB05F109B20020FFF729FD94F948
:1043F000000010FB06F212B294F9000010FB05F168
:1044000009B20120FFF71CFD124908780028D2D01C
:104410002078401C207094F900000A2801DB00205D
:1044200008700D48B0F91220B0F910100B4800F0D8
:1044300029F80B48B0F91220B0F91010094800F023
:1044400021F83220FFF738FBC0E700BF0068890978
:104450002D09020838060208BC080208B4470810F3
:10446000D0080208E447081080B505490860FFF746
:1044700017FFFFF750FB0020FEF712FD01BD000003
:10448000200902080EB4C0B5024603A8002101901D
:10449000009101AB0121044878440C30FBF7F3FD97
:1044A00006BC5DF810FB00BFF1040000443A5C411B
:1044B0005374756479576F726B535C436F646557BF
:1044C0006F726B735370616365735C494152393429
:1044D00030776F726B737370616365735C453037EF
:1044E0005F43595432424C335C6C69627261726949
:1044F00065735C73646B5C747669696268346D5C67
:104500007372635C73797374656D5C7379737465CE
:104510006D5F747669696265346D5F636D342E63B7
:1045200000000000443A5C415374756479576F721F
:104530006B535C436F6465576F726B735370616349
:1045400065735C494152393430776F726B737370A5
:10455000616365735C4530375F43595432424C3375
:104560005C6C69627261726965735C73646B5C74C4
:104570007669696268346D5C7372635C64726976D3
:104580006572735C737973636C6B5C63795F737969
:1045900073636C6B2E680000443A5C41537475641D
:1045A00079576F726B535C436F6465576F726B73AF
:1045B0005370616365735C494152393430776F726F
:1045C0006B737370616365735C4530375F43595437
:1045D00032424C335C6C69627261726965735C7300
:1045E000646B5C747669696268346D5C7372635C79
:1045F000647269766572735C737973636C6B5C6308
:10460000795F737973636C6B2E630000443A5C418D
:104610005374756479576F726B535C436F6465575D
:104620006F726B735370616365735C4941523934C7
:1046300030776F726B737370616365735C4530378D
:104640005F43595432424C335C6C696272617269E7
:1046500065735C7A665F636F6D6D6F6E5C7A665FC3
:10466000636F6D6D6F6E5F6669666F2E630000002D
:10467000443A5C415374756479576F726B535C4371
:104680006F6465576F726B735370616365735C49D8
:104690004152393430776F726B7373706163657335
:1046A0005C4530375F43595432424C335C6C69622D
:1046B0007261726965735C7A665F6472697665724D
:1046C0005C7A665F6472697665725F756172742E7A
:1046D0006300000080B50020FDF7B7FB002801D083
:1046E000FEF788F801BD80B50120FDF7AEFB01BDE6
:1046F00080B50220FDF7A9FB01BD80B50320FDF7C1
:10470000A4FB01BD80B50420FDF79FFB01BD80B572
:104710000520FDF79AFB002802D00020FFF72EFBB2
:1047200001BD80B50620FDF790FB002802D00120D6
:10473000FFF724FB01BD000072B609480949086073
:10474000BFF34F8F002000210A4AE2E802016A45C8
:10475000FBD1054FB847054FB847054FB847FEE7AF
:104760000000081008ED00E031410810154808105D
:104770004D49081000FF0708FFFF070830B4002567
:1047800012E050F8042BD30744BF4A44521E091FBD
:10479000042942F8045BFAD213468C0744BF158003
:1047A0009B1CC90748BF1D7050F8041B0029E8D1A5
:1047B00030BC70476D6F746F725F315F6C6566748B
:1047C0005F73706565643A25642C206D6F746F7239
:1047D0005F315F72696768745F73706565643A25FD
:1047E000640D0A006D6F746F725F325F6C65667482
:1047F0005F73706565643A25642C206D6F746F7209
:104800005F325F72696768745F73706565643A25CB
:10481000640D0A0010B5074979441831064C7C44F0
:10482000163404E00A68081D114488470146A14275
:10483000F8D110BD2C000000480000004EF6885151
:10484000CEF20001086840F470000860BFF34F8F9B
:10485000BFF36F8F4FF00170E1EE100A7047000058
:104860001DFFFFFFF80200003C06020800000000E8
:10487000BFC6FFFF24020000A400000000000208E1
:1048800004207146084202D0EFF3098001E0EFF303
:10489000088000B50149884700BD000005390810AF
:1048A00080B58DF80000012269460120FDF7B2FFB6
:1048B000012802D19DF8000002BD4FF0FF3002BD7B
:1048C000801C800803D0401C801EFCD100BF7047B4
:1048D000EFF3108072B6704780F3108870470000C5
:1048E00000F00EF8002801D0FFF794FFAFF300802E
:1048F0000020AFF30080FFF751FD00F003F8000047
:104900000020704700F000B807463846FDF7B2F9BE
:10491000FBE700000D0A66696C65202573206C6951
:104920006E652025643A2025732E0D0A00000000D4
:1049300004207146084201D0EFF30980EFF30880AC
:1049400000B50149884700BDE949081005480146FE
:1049500003B4684680F30988AFF30080FFF76EFF69
:10496000FFF7BEFFA5EDF5FE00127A000000000083
:104970000024F4000080000000800000008000009F
:104980000D0A66696C65202573206C696E652025AB
:10499000642E0D0A0000000038B504460D46284676
:1049A000FFF77EFFA84218BF0024204632BD00005A
:1049B00066696C653A206D646B2F257300000000FA
:1049C000417373657274206572726F72000000002B
:1049D00066696C653A202573000000006C696E659D
:1049E0003A20256400000000816911F8021CC9B258
:1049F0000160704700000208FFFF07080000000088
:104A000000000000000000000000000000000000A6
:104A10000000000000000000000000000000000096
:104A20000000000000000000000000000000000086
:104A30000000000000000000000000000000000076
:104A40000000000000000000000000000000000066
:104A5000000000000000000000000000FFF7FEBFA3
:104A6000FFF70EBFFFF70CBFFFF70ABFFFF7FEBF50
:104A7000FFF7FEBFFFF7FEBFFFF7FEBFFFF7FEBF6A
:104A8000FFF7FEBFFFF7FEBFFFF7FEBFFFF7FEBF5A
:104A9000FFF7FEBFFFF7FEBFF002FFB53F081004AF
:104AA000F1FF04F1FF04F1FF04F1FF04F19704109A
:104AB0000700000208D5460810E70412F10412FBB3
:104AC000041003054708100F04122304100500000A
:104AD0006040000064041265041263041262041250
:104AE00067040004614001017B0700000000000032
:104AF00000000000000000000000000000000000B6
:104B000000000000000000000000000000000000A5
:104B10000000000000000000000000000000000095
:104B20000000000000000000000000000000000085
:104B30000000000000000000000000000000000075
:104B40000000000000000000000000000000000065
:104B50000000000000000000000000000000000055
:104B60000000000000000000000000000000000045
:104B70000000000000000000000000000000000035
:104B80000000000000000000000000000000000025
:104B90000000000000000000000000000000000015
:104BA0000000000000000000000000000000000005
:044BB0000000000001
:040000051008494D49
:00000001FF
