:020000041008E2
:10000000000008089D550910295B09100D580910BA
:100010002D5B0910315B0910355B091000000000F1
:10002000000000000000000000000000C15809109E
:10003000395B0910000000003D5B0910415B0910AD
:100040005F4A0910854A0910AB4A0910D14A0910C4
:10005000DF4A0910ED4A0910134B0910394B0910FA
:10006000455B0910495B09104D5B0910515B091094
:10007000555B0910595B09105D5B0910615B091044
:1000800088138B138E139213951398139C139F133D
:10009000A213A613A913AC13B013B313B613BA1358
:1000A000BD13C113C413C713CB13CE13D113D51370
:1000B000D813DB13DF13E213E513E913EC13F0138A
:1000C000F313F613FA13FD130014041407140A149F
:1000D0000E141114141418141B141E1422142514B5
:1000E00029142C142F143314361439143D144014CD
:1000F000431447144A144D145114541457145B14E8
:100100005E146214651468146C146F1472147614FF
:1001100079147C148014831486148A148D1490141A
:10012000941497149B149E14A114A514A814AB1432
:10013000AF14B214B514B914BC14BF14C314C6144C
:10014000C914CD14D014D314D714DA14DE14E11466
:10015000E414E814EB14EE14F214F514F814FC147F
:10016000FF140215061509150C1510151315161593
:100170001A151D152015241527152A152E153115AC
:10018000341538153B153F154215451549154C15C5
:100190004F155315561559155D15601563156715DF
:1001A0006A156D157115741577157B157E158115FA
:1001B000851588158B158F159215951599159C1514
:1001C0009F15A315A615A915AD15B015B315B7152F
:1001D000BA15BD15C115C415C715CB15CE15D1154A
:1001E000D515D815DB15DF15E215E515E915EC1564
:1001F000EF15F315F615F915FD150016031607167C
:100200000A160D161116141617161B161E16211691
:10021000251628162B162F163216351639163C16AB
:100220003F164316461649164D16501653165616C7
:100230005A165D166016641667166A166E167116E3
:10024000741678167B167E168216851688168C16FE
:100250008F169216961699169C169F16A316A6161A
:10026000A916AD16B016B316B716BA16BD16C11636
:10027000C416C716CA16CE16D116D416D816DB1653
:10028000DE16E216E516E816EC16EF16F216F5166F
:10029000F916FC16FF160317061709170D17101786
:1002A000131716171A171D172017241727172A17A1
:1002B0002E173117341737173B173E1741174517BD
:1002C00048174B174F175217551758175C175F17DA
:1002D0006217661769176C176F17731776177917F8
:1002E0007D178017831786178A178D179017941715
:1002F00097179A179D17A117A417A717AB17AE1733
:10030000B117B417B817BB17BE17C117C517C81751
:10031000CB17CF17D217D517D817DC17DF17E2176F
:10032000E517E917EC17EF17F317F617F917FC178E
:1003300000180318061809180D18101813181618A5
:100340001A181D182018241827182A182D183118C3
:10035000341837183A183E184118441847184B18E3
:100360004E185118541858185B185E186118651803
:1003700068186B186E187218751878187B187F1823
:100380008218851888188C188F1892189518991843
:100390009C189F18A218A618A918AC18AF18B21864
:1003A000B618B918BC18BF18C318C618C918CC1885
:1003B000D018D318D618D918DC18E018E318E618A6
:1003C000E918ED18F018F318F618FA18FD180019C6
:1003D000031906190A190D191019131916191A19E2
:1003E0001D192019231927192A192D193019331904
:1003F00037193A193D194019431947194A194D1926
:100400005019541957195A195D1960196419671947
:100410006A196D197019741977197A197D1980196B
:10042000831987198A198D199019931997199A198F
:100430009D19A019A319A719AA19AD19B019B319B3
:10044000B719BA19BD19C019C319C619CA19CD19D6
:10045000D019D319D619D919DD19E019E319E619FC
:10046000E919ED19F019F319F619F919FC19001A1F
:10047000031A061A091A0C1A0F1A131A161A191A3D
:100480001C1A1F1A221A251A291A2C1A2F1A321A64
:10049000351A381A3C1A3F1A421A451A481A4B1A8A
:1004A0004E1A521A551A581A5B1A5E1A611A641AB1
:1004B000681A6B1A6E1A711A741A771A7A1A7E1AD7
:1004C000811A841A871A8A1A8D1A901A931A971AFF
:1004D0009A1A9D1AA01AA31AA61AA91AAD1AB01A26
:1004E000B31AB61AB91ABC1ABF1AC21AC51AC91A4F
:1004F000CC1ACF1AD21AD51AD81ADB1ADE1AE11A78
:10050000E51AE81AEB1AEE1AF11AF41AF71AFA1A9F
:10051000FD1A011B041B071B0A1B0D1B101B131BC1
:10052000161B191B1C1B1F1B231B261B291B2C1BEB
:100530002F1B321B351B381B3B1B3E1B411B451B16
:10054000481B4B1B4E1B511B541B571B5A1B5D1B3F
:10055000601B631B661B691B6D1B701B731B761B6B
:10056000791B7C1B7F1B821B851B881B8B1B8E1B97
:10057000911B941B971B9A1B9D1BA11BA41BA71BC4
:10058000AA1BAD1BB01BB31BB61BB91BBC1BBF1BEF
:10059000C21BC51BC81BCB1BCE1BD11BD41BD71B1F
:1005A000DA1BDD1BE01BE41BE71BEA1BED1BF01B4A
:1005B000F31BF61BF91BFC1BFF1B021C051C081C74
:1005C0000B1C0E1C111C141C171C1A1C1D1C201C9F
:1005D000231C261C291C2C1C2F1C321C351C381CCF
:1005E0003B1C3E1C411C441C471C4A1C4D1C501CFF
:1005F000531C561C591C5C1C5F1C621C651C681C2F
:100600006B1C6E1C711C741C771C7A1C7D1C801C5E
:10061000831C861C891C8C1C8F1C921C951C981C8E
:100620009B1C9E1CA11CA41CA71CAA1CAC1CAF1CC0
:10063000B21CB51CB81CBB1CBE1CC11CC41CC71CF6
:10064000CA1CCD1CD01CD31CD61CD91CDC1CDF1C26
:10065000E21CE51CE81CEB1CED1CF01CF31CF61C5A
:10066000F91CFC1CFF1C021D051D081D0B1D0E1D89
:10067000111D141D171D191D1C1D1F1D221D251DBB
:10068000281D2B1D2E1D311D341D371D3A1D3C1DEF
:100690003F1D421D451D481D4B1D4E1D511D541D26
:1006A000571D5A1D5C1D5F1D621D651D681D6B1D5C
:1006B0006E1D711D741D761D791D7C1D7F1D821D93
:1006C000851D881D8B1D8E1D901D931D961D991DCA
:1006D0009C1D9F1DA21DA51DA71DAA1DAD1DB01D02
:1006E000B31DB61DB91DBB1DBE1DC11DC41DC71D3B
:1006F000CA1DCD1DCF1DD21DD51DD81DDB1DDE1D74
:10070000E11DE31DE61DE91DEC1DEF1DF21DF41DAD
:10071000F71DFA1DFD1D001E031E051E081E0B1EE3
:100720000E1E111E141E161E191E1C1E1F1E221E1A
:10073000251E271E2A1E2D1E301E331E351E381E56
:100740003B1E3E1E411E431E461E491E4C1E4F1E92
:10075000511E541E571E5A1E5D1E5F1E621E651ED0
:10076000681E6B1E6D1E701E731E761E791E7B1E0C
:100770007E1E811E841E861E891E8C1E8F1E911E4B
:10078000941E971E9A1E9D1E9F1EA21EA51EA81E89
:10079000AA1EAD1EB01EB31EB51EB81EBB1EBE1EC9
:1007A000C01EC31EC61EC91ECB1ECE1ED11ED41E09
:1007B000D61ED91EDC1EDE1EE11EE41EE71EE91E4B
:1007C000EC1EEF1EF21EF41EF71EFA1EFC1EFF1E8C
:1007D000021F051F071F0A1F0D1F0F1F121F151FC6
:1007E000181F1A1F1D1F201F221F251F281F2A1F09
:1007F0002D1F301F331F351F381F3B1F3D1F401F4C
:10080000431F451F481F4B1F4D1F501F531F551F90
:10081000581F5B1F5D1F601F631F651F681F6B1FD5
:100820006D1F701F731F751F781F7B1F7D1F801F1B
:10083000831F851F881F8B1F8D1F901F931F951F60
:10084000981F9A1F9D1FA01FA21FA51FA81FAA1FA8
:10085000AD1FB01FB21FB51FB71FBA1FBD1FBF1FEF
:10086000C21FC41FC71FCA1FCC1FCF1FD21FD41F38
:10087000D71FD91FDC1FDF1FE11FE41FE61FE91F81
:10088000EC1FEE1FF11FF31FF61FF81FFB1FFE1FCB
:1008900000200320052008200B200D20102012200E
:1008A000152017201A201D201F2022202420272059
:1008B00029202C202F2031203420362039203B20A5
:1008C0003E2040204320452048204B204D205020F2
:1008D0005220552057205A205C205F206120642040
:1008E000662069206B206E2070207320762078208F
:1008F0007B207D2080208220852087208A208C20DC
:100900008F2091209420962099209B209E20A0202B
:10091000A320A520A820AA20AC20AF20B120B4207D
:10092000B620B920BB20BE20C020C320C520C820CF
:10093000CA20CD20CF20D220D420D620D920DB2021
:10094000DE20E020E320E520E820EA20EC20EF2074
:10095000F120F420F620F920FB20FE2000210221C6
:10096000052107210A210C210F2111211321162114
:1009700018211B211D211F2122212421272129216A
:100980002B212E2130213321352137213A213C21C1
:100990003F2141214321462148214B214D214F2117
:1009A00052215421562159215B215E21602162216F
:1009B0006521672169216C216E21702173217521C8
:1009C00078217A217C217F21812183218621882120
:1009D0008A218D218F2191219421962198219B217B
:1009E0009D219F21A221A421A621A921AB21AD21D6
:1009F000AF21B221B421B621B921BB21BD21C02133
:100A0000C221C421C721C921CB21CD21D021D2218E
:100A1000D421D721D921DB21DD21E021E221E421EC
:100A2000E621E921EB21ED21F021F221F421F6214B
:100A3000F921FB21FD21FF210222042206220822A6
:100A40000B220D220F2211221422162218221A2202
:100A50001D221F2221222322252228222A222C2263
:100A60002E22312233223522372239223C223E22C5
:100A7000402242224422472249224B224D224F2229
:100A800052225422562258225A225D225F2261228B
:100A90006322652267226A226C226E2270227222F1
:100AA0007422772279227B227D227F228122842256
:100AB000862288228A228C228E22902293229522BC
:100AC000972299229B229D229F22A222A422A62223
:100AD000A822AA22AC22AE22B022B322B522B7228B
:100AE000B922BB22BD22BF22C122C322C522C822F5
:100AF000CA22CC22CE22D022D222D422D622D8225E
:100B0000DA22DC22DF22E122E322E522E722E922C7
:100B1000EB22ED22EF22F122F322F522F722F92235
:100B2000FB22FD22002302230423062308230A2399
:100B30000C230E23102312231423162318231A2305
:100B40001C231E23202322232423262328232A2375
:100B50002C232E23302332233423362338233A23E5
:100B60003C233E23402342234423462348234A2355
:100B70004C234E23502352235423562358235A23C5
:100B80005C235E23602362236423662368236A2335
:100B90006C236D236F2371237323752377237923AC
:100BA0007B237D237F23812383238523872389231D
:100BB0008B238C238E239023922394239623982394
:100BC0009A239C239E23A023A123A323A523A72309
:100BD000A923AB23AD23AF23B123B223B423B62380
:100BE000B823BA23BC23BE23C023C123C323C523F8
:100BF000C723C923CB23CD23CE23D023D223D42371
:100C0000D623D823DA23DB23DD23DF23E123E323E9
:100C1000E523E623E823EA23EC23EE23F023F12364
:100C2000F323F523F723F923FA23FC23FE230024DF
:100C3000022403240524072409240B240C240E2455
:100C40001024122414241524172419241B241C24D2
:100C50001E242024222424242524272429242B2450
:100C60002C242E24302432243324352437243924D0
:100C70003A243C243E244024412443244524462451
:100C800048244A244C244D244F24512453245424D2
:100C90005624582459245B245D245E246024622455
:100CA00064246524672469246A246C246E246F24D8
:100CB0007124732474247624782479247B247D245D
:100CC0007E248024822483248524872488248A24E3
:100CD0008C248D248F249124922494249624972468
:100CE00099249A249C249E249F24A124A324A424F0
:100CF000A624A724A924AB24AC24AE24AF24B12479
:100D0000B324B424B624B724B924BB24BC24BE2401
:100D1000BF24C124C324C424C624C724C924CA248C
:100D2000CC24CE24CF24D124D224D424D524D72417
:100D3000D824DA24DC24DD24DF24E024E224E324A4
:100D4000E524E624E824E924EB24EC24EE24F02432
:100D5000F124F324F424F624F724F924FA24FC24BF
:100D6000FD24FF2400250225032505250625082549
:100D700009250B250C250E250F25112512251325D8
:100D800015251625182519251B251C251E251F256B
:100D900021252225242525252625282529252B25FD
:100DA0002C252E252F253125322533253525362591
:100DB000382539253B253C253D253F254025422525
:100DC000432544254625472549254A254B254D25BC
:100DD0004E25502551255225542555255625582553
:100DE00059255B255C255D255F25602561256325EB
:100DF00064256625672568256A256B256C256E2583
:100E00006F2570257225732574257625772578251D
:100E10007A257B257C257E257F25802582258325B7
:100E2000842585258725882589258B258C258D2555
:100E30008F259025912592259425952596259825F1
:100E400099259A259B259D259E259F25A025A22590
:100E5000A325A425A525A725A825A925AA25AC2530
:100E6000AD25AE25AF25B125B225B325B425B625D0
:100E7000B725B825B925BA25BC25BD25BE25BF2572
:100E8000C125C225C325C425C525C725C825C92513
:100E9000CA25CB25CD25CE25CF25D025D125D225B8
:100EA000D425D525D625D725D825D925DB25DC255C
:100EB000DD25DE25DF25E025E225E325E425E52502
:100EC000E625E725E825EA25EB25EC25ED25EE25A9
:100ED000EF25F025F125F325F425F525F625F72551
:100EE000F825F925FA25FB25FC25FE25FF250026FA
:100EF000012602260326042605260626072608269E
:100F000009260B260C260D260E260F261026112646
:100F100012261326142615261626172618261926F5
:100F20001A261B261C261D261F26202621262226A1
:100F300023262426252626262726282629262A264D
:100F40002B262C262D262E262F26302631263226FD
:100F500033263426352636263726382639263A26AD
:100F60003A263B263C263D263E263F264026412665
:100F70004226432644264526462647264826492615
:100F80004A264B264C264D264D264E264F265026C9
:100F9000512652265326542655265626572657267E
:100FA000582659265A265B265C265D265E265F2635
:100FB00060266026612662266326642665266626EC
:100FC00067266726682669266A266B266C266D26A4
:100FD0006D266E266F26702671267226722673265F
:100FE00074267526762677267726782679267A2619
:100FF0007B267B267C267D267E267F267F268026D6
:101000008126822683268326842685268626872691
:101010008726882689268A268A268B268C268D2650
:101020008E268E268F26902691269126922693260E
:1010300094269426952696269626972698269926CF
:1010400099269A269B269C269C269D269E269E2691
:101050009F26A026A126A126A226A326A326A42653
:10106000A526A526A626A726A726A826A926A92618
:10107000AA26AB26AC26AC26AD26AD26AE26AF26DC
:10108000AF26B026B126B126B226B326B326B426A3
:10109000B526B526B626B726B726B826B826B92669
:1010A000BA26BA26BB26BC26BC26BD26BD26BE2631
:1010B000BF26BF26C026C026C126C226C226C326FA
:1010C000C326C426C426C526C626C626C726C726C6
:1010D000C826C826C926CA26CA26CB26CB26CC2691
:1010E000CC26CD26CD26CE26CF26CF26D026D0265E
:1010F000D126D126D226D226D326D326D426D4262C
:10110000D526D526D626D626D726D726D826D826FB
:10111000D926D926DA26DA26DB26DB26DC26DC26CB
:10112000DD26DD26DE26DE26DF26DF26E026E0269B
:10113000E026E126E126E226E226E326E326E4266F
:10114000E426E526E526E526E626E626E726E72642
:10115000E826E826E826E926E926EA26EA26EA2617
:10116000EB26EB26EC26EC26EC26ED26ED26EE26ED
:10117000EE26EE26EF26EF26F026F026F026F126C4
:10118000F126F126F226F226F326F326F326F4269C
:10119000F426F426F526F526F526F626F626F62676
:1011A000F726F726F726F826F826F826F926F92650
:1011B000F926FA26FA26FA26FB26FB26FB26FB262C
:1011C000FC26FC26FC26FD26FD26FD26FD26FE2609
:1011D000FE26FE26FF26FF26FF26FF2600270027E5
:1011E00000270027012701270127022702270227BE
:1011F000022702270327032703270327042704279F
:10120000042704270527052705270527052706277F
:101210000627062706270627072707270727072762
:101220000727082708270827082708270927092745
:1012300009270927092709270A270A270A270A272A
:101240000A270A270B270B270B270B270B270B2710
:101250000B270C270C270C270C270C270C270C27F7
:101260000C270D270D270D270D270D270D270D27DF
:101270000D270D270D270E270E270E270E270E27C9
:101280000E270E270E270E270E270E270E270F27B5
:101290000F270F270F270F270F270F270F270F279E
:1012A0000F270F270F270F270F270F270F270F278E
:1012B0000F270F270F270F270F270F270F270F277E
:1012C0000F270F270F270F270F270F270F270F276E
:1012D0000F270F270F270F270F270F270F270F275E
:1012E0000F270F270F270F270F270F270F270F274E
:1012F0000F270F270F270F270F270F270F270F273E
:101300000F270F270F270E270E270E270E270E2732
:101310000E270E270E270E270E270E270E270D2726
:101320000D270D270D270D270D270D270D270D271D
:101330000D270C270C270C270C270C270C270C2714
:101340000C270B270B270B270B270B270B270B270C
:101350000A270A270A270A270A270A270927092707
:101360000927092709270927082708270827082701
:1013700008270727072707270727072706270627FE
:1013800006270627062705270527052705270527FA
:1013900004270427042704270327032703270327F9
:1013A00002270227022702270227012701270127F8
:1013B0000027002700270027FF26FF26FF26FF26FD
:1013C000FE26FE26FE26FD26FD26FD26FD26FC2603
:1013D000FC26FC26FB26FB26FB26FB26FA26FA2605
:1013E000FA26F926F926F926F826F826F826F72609
:1013F000F726F726F626F626F626F526F526F5260E
:10140000F426F426F426F326F326F326F226F22613
:10141000F126F126F126F026F026F026EF26EF261B
:10142000EE26EE26EE26ED26ED26EC26EC26EC2624
:10143000EB26EB26EA26EA26EA26E926E926E8262E
:10144000E826E826E726E726E626E626E526E52638
:10145000E526E426E426E326E326E226E226E12644
:10146000E126E026E026E026DF26DF26DE26DE2651
:10147000DD26DD26DC26DC26DB26DB26DA26DA2660
:10148000D926D926D826D826D726D726D626D62670
:10149000D526D526D426D426D326D326D226D22680
:1014A000D126D126D026D026CF26CF26CE26CD2691
:1014B000CD26CC26CC26CB26CB26CA26CA26C926A4
:1014C000C826C826C726C726C626C626C526C426B9
:1014D000C426C326C326C226C226C126C026C026CD
:1014E000BF26BF26BE26BD26BD26BC26BC26BB26E3
:1014F000BA26BA26B926B826B826B726B726B626FB
:10150000B526B526B426B326B326B226B126B12613
:10151000B026AF26AF26AE26AD26AD26AC26AC262D
:10152000AB26AA26A926A926A826A726A726A62648
:10153000A526A526A426A326A326A226A126A12663
:10154000A0269F269E269E269D269C269C269B2680
:101550009A2699269926982697269626962695269F
:1015600094269426932692269126912690268F26BD
:101570008E268E268D268C268B268A268A268926DE
:101580008826872687268626852684268326832600
:101590008226812680267F267F267E267D267C2623
:1015A0007B267B267A267926782677267726762646
:1015B00075267426732672267226712670266F266B
:1015C0006E266D266D266C266B266A266926682691
:1015D00067266726662665266426632662266126B8
:1015E000602660265F265E265D265C265B265A26E0
:1015F000592658265726572656265526542653260A
:101600005226512650264F264E264D264D264C2634
:101610004B264A264926482647264626452644265E
:1016200043264226412640263F263E263D263C268E
:101630003B263A263A2639263826372636263526B8
:10164000342633263226312630262F262E262D26E6
:101650002C262B262A262926282627262626252616
:10166000242623262226212620261F261D261C2648
:101670001B261A261926182617261626152614267E
:1016800013261226112610260F260E260D260C26AE
:101690000B260926082607260626052604260326E5
:1016A000022601260026FF25FE25FC25FB25FA251E
:1016B000F925F825F725F625F525F425F325F12557
:1016C000F025EF25EE25ED25EC25EB25EA25E8258F
:1016D000E725E625E525E425E325E225E025DF25C8
:1016E000DE25DD25DC25DB25D925D825D725D62502
:1016F000D525D425D225D125D025CF25CE25CD253C
:10170000CB25CA25C925C825C725C525C425C32578
:10171000C225C125BF25BE25BD25BC25BA25B925B5
:10172000B825B725B625B425B325B225B125AF25F3
:10173000AE25AD25AC25AA25A925A825A725A52533
:10174000A425A325A225A0259F259E259D259B2573
:101750009A259925982596259525942592259125B4
:1017600090258F258D258C258B25892588258725F6
:10177000852584258325822580257F257E257C253A
:101780007B257A257825772576257425732572257E
:1017900070256F256E256C256B256A2568256725C4
:1017A000662564256325612560255F255D255C250B
:1017B0005B25592558255625552554255225512553
:1017C00050254E254D254B254A254925472546259B
:1017D00044254325422540253F253D253C253B25E5
:1017E00039253825362535253325322531252F2530
:1017F0002E252C252B25292528252625252524257C
:10180000222521251F251E251C251B2519251825C8
:10181000162515251325122511250F250E250C2516
:101820000B25092508250625052503250225002564
:10183000FF24FD24FC24FA24F924F724F624F424BC
:10184000F324F124F024EE24EC24EB24E924E8240E
:10185000E624E524E324E224E024DF24DD24DC2460
:10186000DA24D824D724D524D424D224D124CF24B4
:10187000CE24CC24CA24C924C724C624C424C32407
:10188000C124BF24BE24BC24BB24B924B724B6245D
:10189000B424B324B124AF24AE24AC24AB24A924B3
:1018A000A724A624A424A324A1249F249E249C240A
:1018B0009A249924972496249424922491248F2462
:1018C0008D248C248A2488248724852483248224BC
:1018D00080247E247D247B24792478247624742417
:1018E000732471246F246E246C246A246924672471
:1018F00065246424622460245E245D245B245924CE
:10190000582456245424532451244F244D244C2429
:101910004A244824462445244324412440243E2488
:101920003C243A24392437243524332432243024E7
:101930002E242C242B242924272425242424222447
:1019400020241E241C241B241924172415241424A9
:10195000122410240E240C240B240924072405240B
:10196000032402240024FE23FC23FA23F923F72373
:10197000F523F323F123F023EE23EC23EA23E823DA
:10198000E623E523E323E123DF23DD23DB23DA233F
:10199000D823D623D423D223D023CE23CD23CB23A5
:1019A000C923C723C523C323C123C023BE23BC230C
:1019B000BA23B823B623B423B223B123AF23AD2374
:1019C000AB23A923A723A523A323A123A0239E23DD
:1019D0009C239A23982396239423922390238E2347
:1019E0008C238B23892387238523832381237F23B0
:1019F0007D237B23792377237523732371236F231F
:101A00006D236C236A236823662364236223602387
:101A10005E235C235A2358235623542352235023F6
:101A20004E234C234A234823462344234223402366
:101A30003E233C233A2338233623342332233023D6
:101A40002E232C232A232823262324232223202346
:101A50001E231C231A2318231623142312231023B6
:101A60000E230C230A230823062304230223002326
:101A7000FD22FB22F922F722F522F322F122EF22A6
:101A8000ED22EB22E922E722E522E322E122DF2216
:101A9000DC22DA22D822D622D422D222D022CE228E
:101AA000CC22CA22C822C522C322C122BF22BD2203
:101AB000BB22B922B722B522B322B022AE22AC2279
:101AC000AA22A822A622A422A2229F229D229B22F1
:101AD000992297229522932290228E228C228A226A
:101AE00088228622842281227F227D227B227922E3
:101AF00077227422722270226E226C226A2267225E
:101B00006522632261225F225D225A2258225622D8
:101B1000542252224F224D224B2249224722442254
:101B2000422240223E223C223922372235223322D1
:101B300031222E222C222A2228222522232221224F
:101B40001F221D221A2218221622142211220F22CD
:101B50000D220B220822062204220222FF21FD214F
:101B6000FB21F921F621F421F221F021ED21EB21D5
:101B7000E921E621E421E221E021DD21DB21D92157
:101B8000D721D421D221D021CD21CB21C921C721D8
:101B9000C421C221C021BD21BB21B921B621B4215C
:101BA000B221AF21AD21AB21A921A621A421A221DF
:101BB0009F219D219B2198219621942191218F2164
:101BC0008D218A2188218621832181217F217C21E9
:101BD0007A2178217521732170216E216C21692170
:101BE00067216521622160215E215B2159215621F7
:101BF000542152214F214D214B214821462143217F
:101C000041213F213C213A21372135213321302107
:101C10002E212B2129212721242122211F211D2191
:101C20001B2118211621132111210F210C210A211A
:101C30000721052102210021FE20FB20F920F620AA
:101C4000F420F120EF20EC20EA20E820E520E3203A
:101C5000E020DE20DB20D920D620D420D220CF20C7
:101C6000CD20CA20C820C520C320C020BE20BB2054
:101C7000B920B620B420B120AF20AC20AA20A820E3
:101C8000A520A320A0209E209B2099209620942070
:101C900091208F208C208A20872085208220802000
:101CA0007D207B2078207620732070206E206B2092
:101CB00069206620642061205F205C205A20572024
:101CC0005520522050204D204B20482045204320B5
:101CD00040203E203B2039203620342031202F2048
:101CE0002C2029202720242022201F201D201A20DC
:101CF00017201520122010200D200B200820052071
:101D000003200020FE1FFB1FF81FF61FF31FF11F0B
:101D1000EE1FEC1FE91FE61FE41FE11FDF1FDC1FA2
:101D2000D91FD71FD41FD21FCF1FCC1FCA1FC71F39
:101D3000C41FC21FBF1FBD1FBA1FB71FB51FB21FD1
:101D4000B01FAD1FAA1FA81FA51FA21FA01F9D1F68
:101D50009A1F981F951F931F901F8D1F8B1F881F01
:101D6000851F831F801F7D1F7B1F781F751F731F9B
:101D7000701F6D1F6B1F681F651F631F601F5D1F36
:101D80005B1F581F551F531F501F4D1F4B1F481FD0
:101D9000451F431F401F3D1F3B1F381F351F331F6B
:101DA000301F2D1F2A1F281F251F221F201F1D1F08
:101DB0001A1F181F151F121F0F1F0D1F0A1F071FA5
:101DC000051F021FFF1EFC1EFA1EF71EF41EF21E48
:101DD000EF1EEC1EE91EE71EE41EE11EDE1EDC1EE9
:101DE000D91ED61ED41ED11ECE1ECB1EC91EC61E87
:101DF000C31EC01EBE1EBB1EB81EB51EB31EB01E27
:101E0000AD1EAA1EA81EA51EA21E9F1E9D1E9A1EC6
:101E1000971E941E911E8F1E8C1E891E861E841E68
:101E2000811E7E1E7B1E791E761E731E701E6D1E09
:101E30006B1E681E651E621E5F1E5D1E5A1E571EAB
:101E4000541E511E4F1E4C1E491E461E431E411E4F
:101E50003E1E3B1E381E351E331E301E2D1E2A1EF2
:101E6000271E251E221E1F1E1C1E191E161E141E96
:101E7000111E0E1E0B1E081E051E031E001EFD1D3C
:101E8000FA1DF71DF41DF21DEF1DEC1DE91DE61DE9
:101E9000E31DE11DDE1DDB1DD81DD51DD21DCF1D8F
:101EA000CD1DCA1DC71DC41DC11DBE1DBB1DB91D35
:101EB000B61DB31DB01DAD1DAA1DA71DA51DA21DDC
:101EC0009F1D9C1D991D961D931D901D8E1D8B1D84
:101ED000881D851D821D7F1D7C1D791D761D741D2D
:101EE000711D6E1D6B1D681D651D621D5F1D5C1DD6
:101EF0005A1D571D541D511D4E1D4B1D481D451D7E
:101F0000421D3F1D3C1D3A1D371D341D311D2E1D28
:101F10002B1D281D251D221D1F1D1C1D191D171DD4
:101F2000141D111D0E1D0B1D081D051D021DFF1C7E
:101F3000FC1CF91CF61CF31CF01CED1CEB1CE81C33
:101F4000E51CE21CDF1CDC1CD91CD61CD31CD01CDD
:101F5000CD1CCA1CC71CC41CC11CBE1CBB1CB81C8D
:101F6000B51CB21CAF1CAC1CAA1CA71CA41CA11C39
:101F70009E1C9B1C981C951C921C8F1C8C1C891CE5
:101F8000861C831C801C7D1C7A1C771C741C711C95
:101F90006E1C6B1C681C651C621C5F1C5C1C591C45
:101FA000561C531C501C4D1C4A1C471C441C411CF5
:101FB0003E1C3B1C381C351C321C2F1C2C1C291CA5
:101FC000261C231C201C1D1C1A1C171C141C111C55
:101FD0000E1C0B1C081C051C021CFF1BFC1BF91B08
:101FE000F61BF31BF01BED1BEA1BE71BE41BE01BBE
:101FF000DD1BDA1BD71BD41BD11BCE1BCB1BC81B75
:10200000C51BC21BBF1BBC1BB91BB61BB31BB01B24
:10201000AD1BAA1BA71BA41BA11B9D1B9A1B971BD7
:10202000941B911B8E1B8B1B881B851B821B7F1B8C
:102030007C1B791B761B731B701B6D1B691B661B3E
:10204000631B601B5D1B5A1B571B541B511B4E1BF4
:102050004B1B481B451B411B3E1B3B1B381B351BA9
:10206000321B2F1B2C1B291B261B231B1F1B1C1B5E
:10207000191B161B131B101B0D1B0A1B071B041B14
:10208000011BFD1AFA1AF71AF41AF11AEE1AEB1AD2
:10209000E81AE51AE11ADE1ADB1AD81AD51AD21A8A
:1020A000CF1ACC1AC91AC51AC21ABF1ABC1AB91A41
:1020B000B61AB31AB01AAD1AA91AA61AA31AA01AF8
:1020C0009D1A9A1A971A931A901A8D1A8A1A871AB1
:1020D000841A811A7E1A7A1A771A741A711A6E1A69
:1020E0006B1A681A641A611A5E1A5B1A581A551A22
:1020F000521A4E1A4B1A481A451A421A3F1A3C1ADB
:10210000381A351A321A2F1A2C1A291A251A221A95
:102110001F1A1C1A191A161A131A0F1A0C1A091A4E
:10212000061A031A001AFC19F919F619F319F0190D
:10213000ED19E919E619E319E019DD19D919D619CC
:10214000D319D019CD19CA19C619C319C019BD1987
:10215000BA19B719B319B019AD19AA19A719A31942
:10216000A0199D199A199719931990198D198A19FF
:102170008719831980197D197A19771974197019BB
:102180006D196A196719641960195D195A19571977
:10219000541950194D194A194719431940193D1935
:1021A0003A193719331930192D192A1927192319F2
:1021B00020191D191A191619131910190D190A19B0
:1021C000061903190019FD18FA18F618F318F01873
:1021D000ED18E918E618E318E018DC18D918D61835
:1021E000D318D018CC18C918C618C318BF18BC18F3
:1021F000B918B618B218AF18AC18A918A618A218B2
:102200009F189C189918951892188F188C18881870
:10221000851882187F187B187818751872186E1830
:102220006B186818651861185E185B1858185418F0
:1022300051184E184B184718441841183E183A18B0
:102240003718341831182D182A1827182418201870
:102250001D181A181618131810180D180918061832
:1022600003180018FC17F917F617F317EF17EC17F8
:10227000E917E517E217DF17DC17D817D517D217BC
:10228000CF17CB17C817C517C117BE17BB17B8177D
:10229000B417B117AE17AB17A717A417A1179D173F
:1022A0009A179717941790178D178A178617831701
:1022B00080177D177917761773176F176C176917C3
:1022C000661762175F175C175817551752174F1785
:1022D0004B174817451741173E173B173717341749
:1022E00031172E172A172717241720171D171A170B
:1022F0001617131710170D17091706170317FF16D0
:10230000FC16F916F516F216EF16EC16E816E51699
:10231000E216DE16DB16D816D416D116CE16CA165D
:10232000C716C416C116BD16BA16B716B316B01620
:10233000AD16A916A616A3169F169C1699169616E4
:1023400092168F168C168816851682167E167B16A8
:102350007816741671166E166A166716641660166D
:102360005D165A165616531650164D164916461631
:1023700043163F163C163916351632162F162B16F5
:102380002816251621161E161B16171614161116BA
:102390000D160A16071603160016FD15F915F61583
:1023A000F315EF15EC15E915E515E215DF15DB154D
:1023B000D815D515D115CE15CB15C715C415C11512
:1023C000BD15BA15B715B315B015AD15A915A615D8
:1023D000A3159F159C159915951592158F158B159D
:1023E0008815851581157E157B1577157415711562
:1023F0006D156A156715631560155D155915561528
:1024000053154F154C154915451542153F153B15EC
:102410003815341531152E152A15271524152015B4
:102420001D151A151615131510150C150915061579
:102430000215FF14FC14F814F514F214EE14EB1446
:10244000E814E414E114DE14DA14D714D314D0140D
:10245000CD14C914C614C314BF14BC14B914B514D4
:10246000B214AF14AB14A814A514A1149E149B1499
:102470009714941490148D148A1486148314801461
:102480007C147914761472146F146C146814651427
:1024900062145E145B145714541451144D144A14EE
:1024A0004714431440143D143914361433142F14B4
:1024B0002C142914251422141E141B14181414147B
:1024C00011140E140A14071404140014FD13FA1343
:1024D000F613F313F013EC13E913E513E213DF1310
:1024E000DB13D813D513D113CE13CB13C713C413D7
:1024F000C113BD13BA13B613B313B013AC13A9139E
:10250000A613A2139F139C139813951392138E1363
:102510008B138813841381137D137A13771373132A
:1025200070136D136913661363135F135C135913F0
:10253000551352134E134B134813441341133E13B8
:102540003A133713341330132D132A13261323137E
:102550001F131C131913151312130F130B13081346
:1025600005130113FE12FB12F712F412F112ED1211
:10257000EA12E612E312E012DC12D912D612D212DB
:10258000CF12CC12C812C512C212BE12BB12B812A0
:10259000B412B112AD12AA12A712A312A0129D1268
:1025A0009912961293128F128C128912851282122E
:1025B0007F127B127812741271126E126A126712F5
:1025C000641260125D125A125612531250124C12BB
:1025D0004912461242123F123C1238123512311281
:1025E0002E122B122712241221121D121A12171248
:1025F000131210120D12091206120312FF11FC1110
:10260000F911F511F211EF11EB11E811E511E111DA
:10261000DE11DB11D711D411D011CD11CA11C611A1
:10262000C311C011BC11B911B611B211AF11AC1167
:10263000A811A511A2119E119B119811941191112D
:102640008E118A118711841180117D117A117611F2
:10265000731170116C116911661162115F115C11B7
:102660005811551152114E114B114811441141117D
:102670003E113A113711341130112D112A11261142
:10268000231120111C111911161112110F110C1107
:10269000081105110211FE10FB10F810F410F110D2
:1026A000EE10EA10E710E410E010DD10DA10D6109A
:1026B000D310D010CC10C910C610C210BF10BC105F
:1026C000B910B510B210AF10AB10A810A510A11022
:1026D0009E109B109710941091108D108A108710E7
:1026E000831080107D1079107610731070106C10AC
:1026F0006910661062105F105C105810551052106F
:102700004E104B104810451041103E103B10371032
:10271000341031102D102A102710231020101D10F6
:102720001A101610131010100C10091006100210B9
:10273000FF0FFC0FF90FF50FF20FEF0FEB0FE80F84
:10274000E50FE10FDE0FDB0FD80FD40FD10FCE0F47
:10275000CA0FC70FC40FC00FBD0FBA0FB70FB30F0B
:10276000B00FAD0FA90FA60FA30FA00F9C0F990FCD
:10277000960F920F8F0F8C0F890F850F820F7F0F8F
:102780007B0F780F750F720F6E0F6B0F680F640F52
:10279000610F5E0F5B0F570F540F510F4E0F4A0F13
:1027A000470F440F400F3D0F3A0F370F330F300FD5
:1027B0002D0F2A0F260F230F200F1C0F190F160F96
:1027C000130F0F0F0C0F090F060F020FFF0EFC0E59
:1027D000F90EF50EF20EEF0EEB0EE80EE50EE20E20
:1027E000DE0EDB0ED80ED50ED10ECE0ECB0EC80EE1
:1027F000C40EC10EBE0EBB0EB70EB40EB10EAE0EA1
:10280000AA0EA70EA40EA10E9D0E9A0E970E940E60
:10281000900E8D0E8A0E870E830E800E7D0E7A0E20
:10282000760E730E700E6D0E690E660E630E600EE0
:102830005D0E590E560E530E500E4C0E490E460E9E
:10284000430E3F0E3C0E390E360E330E2F0E2C0E5D
:10285000290E260E220E1F0E1C0E190E150E120E1C
:102860000F0E0C0E090E050E020EFF0DFC0DF90DDC
:10287000F50DF20DEF0DEC0DE80DE50DE20DDF0DA0
:10288000DC0DD80DD50DD20DCF0DCC0DC80DC50D5D
:10289000C20DBF0DBB0DB80DB50DB20DAF0DAB0D1B
:1028A000A80DA50DA20D9F0D9B0D980D950D920DD8
:1028B0008F0D8C0D880D850D820D7F0D7C0D780D93
:1028C000750D720D6F0D6C0D680D650D620D5F0D50
:1028D0005C0D580D550D520D4F0D4C0D490D450D0C
:1028E000420D3F0D3C0D390D360D320D2F0D2C0DC7
:1028F000290D260D220D1F0D1C0D190D160D130D82
:102900000F0D0C0D090D060D030D000DFC0CF90C3F
:10291000F60CF30CF00CED0CEA0CE60CE30CE00CFE
:10292000DD0CDA0CD70CD30CD00CCD0CCA0CC70CB8
:10293000C40CC10CBD0CBA0CB70CB40CB10CAE0C71
:10294000AB0CA70CA40CA10C9E0C9B0C980C950C2A
:10295000910C8E0C8B0C880C850C820C7F0C7C0CE3
:10296000780C750C720C6F0C6C0C690C660C620C9C
:102970005F0C5C0C590C560C530C500C4D0C4A0C53
:10298000460C430C400C3D0C3A0C370C340C310C0B
:102990002E0C2A0C270C240C210C1E0C1B0C180CC2
:1029A000150C120C0E0C0B0C080C050C020CFF0B7A
:1029B000FC0BF90BF60BF30BF00BEC0BE90BE60B36
:1029C000E30BE00BDD0BDA0BD70BD40BD10BCE0BEB
:1029D000CA0BC70BC40BC10BBE0BBB0BB80BB50BA3
:1029E000B20BAF0BAC0BA90BA60BA20B9F0B9C0B56
:1029F000990B960B930B900B8D0B8A0B870B840B0B
:102A0000810B7E0B7B0B780B750B720B6E0B6B0BBC
:102A1000680B650B620B5F0B5C0B590B560B530B72
:102A2000500B4D0B4A0B470B440B410B3E0B3B0B22
:102A3000380B350B320B2F0B2B0B280B250B220BD6
:102A40001F0B1C0B190B160B130B100B0D0B0A0B8A
:102A5000070B040B010BFE0AFB0AF80AF50AF20A3F
:102A6000EF0AEC0AE90AE60AE30AE00ADD0ADA0AF2
:102A7000D70AD40AD10ACE0ACB0AC80AC50AC20AA2
:102A8000BF0ABC0AB90AB60AB30AB00AAD0AAA0A52
:102A9000A70AA40AA10A9E0A9B0A980A950A920A02
:102AA0008F0A8C0A890A860A830A800A7D0A7A0AB2
:102AB000770A740A710A6E0A6B0A680A650A630A61
:102AC000600A5D0A5A0A570A540A510A4E0A4B0A0A
:102AD000480A450A420A3F0A3C0A390A360A330ABA
:102AE000300A2D0A2A0A270A240A220A1F0A1C0A67
:102AF000190A160A130A100A0D0A0A0A070A040A12
:102B0000010AFE09FB09F809F609F309F009ED09C4
:102B1000EA09E709E409E109DE09DB09D809D50971
:102B2000D309D009CD09CA09C709C409C109BE0919
:102B3000BB09B809B509B309B009AD09AA09A709C4
:102B4000A409A1099E099B0999099609930990096D
:102B50008D098A098709840981097F097C09790916
:102B60007609730970096D096A09680965096209BE
:102B70005F095C0959095609540951094E094B0965
:102B800048094509420940093D093A09370934090C
:102B900031092E092C0929092609230920091D09B3
:102BA0001B091809150912090F090C090A09070957
:102BB00004090109FE08FB08F908F608F308F00803
:102BC000ED08EA08E808E508E208DF08DC08DA08AA
:102BD000D708D408D108CE08CC08C908C608C3084D
:102BE000C008BE08BB08B808B508B208B008AD08F0
:102BF000AA08A708A408A2089F089C089908960894
:102C0000940891088E088B08890886088308800834
:102C10007E087B0878087508720870086D086A08D5
:102C20006708650862085F085C085A085708540876
:102C300051084F084C0849084608440841083E0816
:102C40003B0839083608330831082E082B082808B5
:102C50002608230820081D081B0818081508130853
:102C600010080D080A080808050802080008FD07F2
:102C7000FA07F707F507F207EF07ED07EA07E70797
:102C8000E507E207DF07DC07DA07D707D407D20733
:102C9000CF07CC07CA07C707C407C207BF07BC07CF
:102CA000BA07B707B407B207AF07AC07AA07A70769
:102CB000A407A2079F079C079A0797079407920704
:102CC0008F078C078A078707840782077F077C079F
:102CD0007A077707750772076F076D076A07670737
:102CE000650762075F075D075A07580755075207D0
:102CF00050074D074B0748074507430740073D0767
:102D00003B0738073607330730072E072B072907FD
:102D10002607230721071E071C0719071707140793
:102D200011070F070C070A07070704070207FF062A
:102D3000FD06FA06F806F506F206F006ED06EB06C5
:102D4000E806E606E306E006DE06DB06D906D6065A
:102D5000D406D106CF06CC06CA06C706C406C206EC
:102D6000BF06BD06BA06B806B506B306B006AE067F
:102D7000AB06A906A606A406A1069F069C06990610
:102D80009706940692068F068D068A0688068506A3
:102D9000830680067E067B06790676067406710633
:102DA0006F066C066A0667066506630660065E06C1
:102DB0005B0659065606540651064F064C064A064F
:102DC00047064506420640063D063B0639063606DE
:102DD000340631062F062C062A062706250623066A
:102DE00020061E061B0619061606140611060F06F7
:102DF0000D060A060806050603060006FE05FC0584
:102E0000F905F705F405F205F005ED05EB05E80514
:102E1000E605E405E105DF05DC05DA05D805D5059D
:102E2000D305D005CE05CC05C905C705C405C20527
:102E3000C005BD05BB05B905B605B405B105AF05AF
:102E4000AD05AA05A805A605A305A1059F059C0536
:102E50009A0597059505930590058E058C058905BE
:102E600087058505820580057E057B057905770543
:102E70007405720570056D056B05690566056405C9
:102E8000620560055D055B0559055605540552054B
:102E90004F054D054B0548054605440542053F05D0
:102EA0003D053B0538053605340532052F052D0552
:102EB0002B0529052605240522051F051D051B05D3
:102EC000190516051405120510050D050B05090554
:102ED0000705040502050005FE04FB04F904F704D8
:102EE000F504F204F004EE04EC04EA04E704E5045B
:102EF000E304E104DE04DC04DA04D804D604D304D9
:102F0000D104CF04CD04CB04C804C604C404C20455
:102F1000C004BD04BB04B904B704B504B204B004D2
:102F2000AE04AC04AA04A804A504A304A1049F044D
:102F30009D049B04980496049404920490048E04C7
:102F40008B04890487048504830481047F047C0442
:102F50007A04780476047404720470046D046B04BB
:102F6000690467046504630461045F045C045A0433
:102F7000580456045404520450044E044C044A04A9
:102F800047044504430441043F043D043B04390421
:102F900037043504330430042E042C042A04280496
:102FA00026042404220420041E041C041A04180409
:102FB0001604140412040F040D040B04090407047E
:102FC000050403040104FF03FD03FB03F903F703F6
:102FD000F503F303F103EF03ED03EB03E903E70369
:102FE000E503E303E103DF03DD03DB03D903D703D9
:102FF000D503D303D103CF03CD03CB03C903C70349
:10300000C503C303C103BF03BD03BB03B903B703B8
:10301000B503B303B103AF03AD03AB03A903A70328
:10302000A503A303A203A0039E039C039A03980392
:1030300096039403920390038E038C038A03880300
:1030400086038403830381037F037D037B0379036A
:1030500077037503730371036F036E036C036A03D5
:10306000680366036403620360035E035D035B033E
:10307000590357035503530351034F034E034C03A6
:103080004A03480346034403420341033F033D030D
:103090003B033903370335033403320330032E0374
:1030A0002C032A03290327032503230321031F03DA
:1030B0001E031C031A03180316031503130311033D
:1030C0000F030D030C030A030803060304030303A1
:1030D0000103FF02FD02FB02FA02F802F602F4020B
:1030E000F302F102EF02ED02EB02EA02E802E6026D
:1030F000E402E302E102DF02DD02DC02DA02D802CE
:10310000D602D502D302D102CF02CE02CC02CA022D
:10311000C902C702C502C302C202C002BE02BC028B
:10312000BB02B902B702B602B402B202B102AF02E8
:10313000AD02AB02AA02A802A602A502A302A10246
:10314000A0029E029C029B029902970296029402A0
:10315000920291028F028D028C028A0288028702FB
:1031600085028302820280027E027D027B02790256
:103170007802760275027302710270026E026C02AE
:103180006B02690268026602640263026102600205
:103190005E025C025B02590258025602540253025C
:1031A000510250024E024C024B02490248024602B2
:1031B00045024302410240023E023D023B023A0206
:1031C0003802370235023302320230022F022D025A
:1031D0002C022A02290227022602240223022102AB
:1031E0001F021E021C021B021902180216021502FF
:1031F0001302120210020F020D020C020A0209024F
:10320000070206020402030201020002FE01FD01A0
:10321000FC01FA01F901F701F601F401F301F101F2
:10322000F001EE01ED01EB01EA01E901E701E60140
:10323000E401E301E101E001DE01DD01DC01DA018D
:10324000D901D701D601D401D301D201D001CF01D8
:10325000CD01CC01CB01C901C801C601C501C40122
:10326000C201C101BF01BE01BD01BB01BA01B9016B
:10327000B701B601B401B301B201B001AF01AE01B3
:10328000AC01AB01A901A801A701A501A401A301FB
:10329000A101A0019F019D019C019B019901980141
:1032A0009701950194019301910190018F018D0186
:1032B0008C018B018A0188018701860184018301C9
:1032C000820180017F017E017D017B017A0179010C
:1032D00077017601750174017201710170016F014E
:1032E0006D016C016B016A0168016701660165018E
:1032F00063016201610160015E015D015C015B01CE
:10330000590158015701560155015301520151010C
:1033100050014E014D014C014B014A01480147014A
:103320004601450144014201410140013F013E0186
:103330003D013B013A0139013801370136013401C1
:1033400033013201310130012F012D012C012B01FC
:103350002A01290128012701250124012301220135
:10336000210120011F011E011C011B011A0119016D
:1033700018011701160115011401130111011001A3
:103380000F010E010D010C010B010A0109010801D9
:103390000701060104010301020101010001FF0010
:1033A000FE00FD00FC00FB00FA00F900F800F70049
:1033B000F600F500F400F300F200F000EF00EE007C
:1033C000ED00EC00EB00EA00E900E800E700E600B1
:1033D000E500E400E300E200E100E000DF00DE00E1
:1033E000DD00DC00DB00DA00D900D800D700D60011
:1033F000D500D500D400D300D200D100D000CF003A
:10340000CE00CD00CC00CB00CA00C900C800C70068
:10341000C600C500C400C300C200C200C100C00095
:10342000BF00BE00BD00BC00BB00BA00B900B800C0
:10343000B800B700B600B500B400B300B200B100E8
:10344000B000AF00AF00AE00AD00AC00AB00AA0012
:10345000A900A800A800A700A600A500A400A3003A
:10346000A200A200A100A0009F009E009D009D0060
:103470009C009B009A009900980098009700960085
:1034800095009400940093009200910090009000A9
:103490008F008E008D008C008C008B008A008900CC
:1034A00088008800870086008500850084008300EE
:1034B00082008100810080007F007E007E007D0010
:1034C0007C007B007B007A0079007900780077002F
:1034D000760076007500740073007300720071004E
:1034E000710070006F006E006E006D006C006C006B
:1034F0006B006A006A006900680068006700660087
:1035000066006500640063006300620062006100A1
:10351000600060005F005E005E005D005C005C00BB
:103520005B005A005A0059005800580057005700D5
:1035300056005500550054005300530052005200ED
:103540005100500050004F004F004E004D004D0004
:103550004C004C004B004B004A0049004900480019
:10356000480047004700460045004500440044002D
:1035700043004300420042004100400040003F0041
:103580003F003E003E003D003D003C003C003B0053
:103590003B003A003A003900390038003800370063
:1035A0003700360036003500350034003400330073
:1035B00033003200320031003100300030002F0083
:1035C0002F002F002E002E002D002D002C002C008F
:1035D0002B002B002A002A002A002900290028009D
:1035E00028002700270027002600260025002500A8
:1035F00025002400240023002300230022002200B1
:10360000210021002100200020001F001F001F00BA
:103610001E001E001E001D001D001C001C001C00C2
:103620001B001B001B001A001A001A0019001900C9
:1036300019001800180018001700170017001600CE
:1036400016001600150015001500140014001400D3
:1036500014001300130013001200120012001200D5
:1036600011001100110010001000100010000F00D8
:103670000F000F000F000E000E000E000D000D00D9
:103680000D000D000D000C000C000C000C000B00D8
:103690000B000B000B000A000A000A000A000A00D7
:1036A00009000900090009000900080008000800D5
:1036B00008000800070007000700070007000600D1
:1036C00006000600060006000600050005000500CD
:1036D00005000500050004000400040004000400C7
:1036E00004000400030003000300030003000300C0
:1036F00003000300020002000200020002000200B8
:1037000002000200020002000100010001000100AD
:1037100001000100010001000100010001000100A1
:103720000000000000000000000000000000000099
:103730000000000000000000000000000000000089
:103740000000000000000000000000000000000079
:103750000000000000000000000000000000000069
:103760000000000000000000000000000000000059
:103770000000000000000000000000000000000049
:103780000000000000000000000000000000000039
:103790000000000000000000010001000100010025
:1037A0000100010001000100010001000100010011
:1037B00002000200020002000200020002000200F9
:1037C00002000200030003000300030003000300E3
:1037D00003000300040004000400040004000400CB
:1037E00004000500050005000500050005000600B1
:1037F0000600060006000600060007000700070096
:103800000700070008000800080008000800090079
:1038100009000900090009000A000A000A000A005C
:103820000A000B000B000B000B000C000C000C003E
:103830000C000D000D000D000D000D000E000E001F
:103840000E000F000F000F000F00100010001000FE
:1038500010001100110011001200120012001200DD
:1038600013001300130014001400140014001500BA
:103870001500150016001600160017001700170097
:103880001800180018001900190019001A001A0071
:103890001A001B001B001B001C001C001C001D004C
:1038A0001D001E001E001E001F001F001F00200024
:1038B00020002100210021002200220023002300FB
:1038C00023002400240025002500250026002600D2
:1038D00027002700270028002800290029002A00A7
:1038E0002A002A002B002B002C002C002D002D007C
:1038F0002E002E002F002F002F003000300031004E
:10390000310032003200330033003400340035001F
:1039100035003600360037003700380038003900EF
:1039200039003A003A003B003B003C003C003D00BF
:103930003D003E003E003F003F004000400041008F
:10394000420042004300430044004400450045005B
:1039500046004700470048004800490049004A0027
:103960004B004B004C004C004D004D004E004F00F2
:103970004F005000500051005200520053005300BD
:103980005400550055005600570057005800580085
:1039900059005A005A005B005C005C005D005E004C
:1039A0005E005F0060006000610062006200630012
:1039B00063006400650066006600670068006800D8
:1039C00069006A006A006B006C006C006D006E009C
:1039D0006E006F0070007100710072007300730060
:1039E0007400750076007600770078007900790021
:1039F0007A007B007B007C007D007E007E007F00E3
:103A000080008100810082008300840085008500A1
:103A1000860087008800880089008A008B008C005F
:103A20008C008D008E008F0090009000910092001D
:103A300093009400940095009600970098009800D9
:103A400099009A009B009C009D009D009E009F0095
:103A5000A000A100A200A200A300A400A500A6004F
:103A6000A700A800A800A900AA00AB00AC00AD0008
:103A7000AE00AF00AF00B000B100B200B300B400C0
:103A8000B500B600B700B800B800B900BA00BB0076
:103A9000BC00BD00BE00BF00C000C100C200C2002B
:103AA000C300C400C500C600C700C800C900CA00E2
:103AB000CB00CC00CD00CE00CF00D000D100D20092
:103AC000D300D400D500D500D600D700D800D90047
:103AD000DA00DB00DC00DD00DE00DF00E000E100FA
:103AE000E200E300E400E500E600E700E800E900AA
:103AF000EA00EB00EC00ED00EE00EF00F000F20059
:103B0000F300F400F500F600F700F800F900FA0001
:103B1000FB00FC00FD00FE00FF00000101010201AE
:103B20000301040106010701080109010A010B0153
:103B30000C010D010E010F011001110113011401FF
:103B4000150116011701180119011A011B011C01A9
:103B50001E011F0120012101220123012401250151
:103B60002701280129012A012B012C012D012F01F8
:103B7000300131013201330134013601370138019E
:103B800039013A013B013D013E013F014001410144
:103B90004201440145014601470148014A014B01E8
:103BA0004C014D014E01500151015201530155018B
:103BB00056015701580159015B015C015D015E012D
:103BC00060016101620163016501660167016801CD
:103BD0006A016B016C016D016F017001710172016D
:103BE000740175017601770179017A017B017D010C
:103BF0007E017F01800182018301840186018701AA
:103C000088018A018B018C018D018F019001910146
:103C10009301940195019701980199019B019C01E1
:103C20009D019F01A001A101A301A401A501A7017C
:103C3000A801A901AB01AC01AE01AF01B001B20115
:103C4000B301B401B601B701B901BA01BB01BD01AD
:103C5000BE01BF01C101C201C401C501C601C80145
:103C6000C901CB01CC01CD01CF01D001D201D301DB
:103C7000D401D601D701D901DA01DC01DD01DE0171
:103C8000E001E101E301E401E601E701E901EA0104
:103C9000EB01ED01EE01F001F101F301F401F60198
:103CA000F701F901FA01FC01FD01FE010002010228
:103CB000030204020602070209020A020C020D02B4
:103CC0000F02100212021302150216021802190244
:103CD0001B021C021E021F022102230224022602D2
:103CE000270229022A022C022D022F023002320260
:103CF00033023502370238023A023B023D023E02ED
:103D000040024102430245024602480249024B0278
:103D10004C024E0250025102530254025602580203
:103D200059025B025C025E0260026102630264028D
:103D30006602680269026B026C026E027002710216
:103D4000730275027602780279027B027D027E029E
:103D50008002820283028502870288028A028C0224
:103D60008D028F02910292029402960297029902AA
:103D70009B029C029E02A002A102A302A502A6022F
:103D8000A802AA02AB02AD02AF02B102B202B402B3
:103D9000B602B702B902BB02BC02BE02C002C20236
:103DA000C302C502C702C902CA02CC02CE02CF02B8
:103DB000D102D302D502D602D802DA02DC02DD0239
:103DC000DF02E102E302E402E602E802EA02EB02B9
:103DD000ED02EF02F102F302F402F602F802FA0237
:103DE000FB02FD02FF0201030303040306030803B1
:103DF0000A030C030D030F0311031303150316032A
:103E000018031A031C031E031F03210323032503A6
:103E1000270329032A032C032E0330033203340320
:103E20003503370339033B033D033F03410342039B
:103E30004403460348034A034C034E034F03510314
:103E400053035503570359035B035D035E0360038C
:103E500062036403660368036A036C036E036F0303
:103E6000710373037503770379037B037D037F037A
:103E7000810383038403860388038A038C038E03F0
:103E8000900392039403960398039A039C039E0362
:103E9000A003A203A303A503A703A903AB03AD03D8
:103EA000AF03B103B303B503B703B903BB03BD034A
:103EB000BF03C103C303C503C703C903CB03CD03BA
:103EC000CF03D103D303D503D703D903DB03DD032A
:103ED000DF03E103E303E503E703E903EB03ED039A
:103EE000EF03F103F303F503F703F903FB03FD030A
:103EF000FF03010403040504070409040B040D0473
:103F00000F0412041404160418041A041C041E04DA
:103F1000200422042404260428042A042C042E0449
:103F2000300433043504370439043B043D043F04B2
:103F300041044304450447044A044C044E0450041D
:103F400052045404560458045A045C045F04610487
:103F500063046504670469046B046D0470047204EF
:103F60007404760478047A047C047F048104830456
:103F70008504870489048B048E04900492049404BD
:103F8000960498049B049D049F04A104A304A50423
:103F9000A804AA04AC04AE04B004B204B504B70487
:103FA000B904BB04BD04C004C204C404C604C804EC
:103FB000CB04CD04CF04D104D304D604D804DA044E
:103FC000DC04DE04E104E304E504E704EA04EC04B1
:103FD000EE04F004F204F504F704F904FB04FE0413
:103FE000000502050405070509050B050D0510056B
:103FF00012051405160519051B051D051F052205CB
:104000002405260529052B052D052F053205340528
:10401000360538053B053D053F0542054405460587
:1040200048054B054D054F055205540556055905E4
:104030005B055D05600562056405660569056B0540
:104040006D05700572057405770579057B057E059C
:10405000800582058505870589058C058E059005F7
:104060009305950597059A059C059F05A105A30550
:10407000A605A805AA05AD05AF05B105B405B605A9
:10408000B905BB05BD05C005C205C405C705C90501
:10409000CC05CE05D005D305D505D805DA05DC0558
:1040A000DF05E105E405E605E805EB05ED05F005AE
:1040B000F205F405F705F905FC05FE050006030603
:1040C000050608060A060D060F0611061406160652
:1040D00019061B061E0620062306250627062A06A5
:1040E0002C062F0631063406360639063B063D06F9
:1040F00040064206450647064A064C064F0651064C
:104100005406560659065B065E066006630665069B
:1041100067066A066C066F067106740676067906EF
:104120007B067E0680068306850688068A068D063F
:104130008F0692069406970699069C069F06A1068E
:10414000A406A606A906AB06AE06B006B306B506DB
:10415000B806BA06BD06BF06C206C406C706CA062A
:10416000CC06CF06D106D406D606D906DB06DE0677
:10417000E006E306E606E806EB06ED06F006F206C4
:10418000F506F806FA06FD06FF060207040707070C
:104190000A070C070F0711071407170719071C0751
:1041A0001E0721072307260729072B072E0730079D
:1041B0003307360738073B073D07400743074507E6
:1041C00048074B074D0750075207550758075A072E
:1041D0005D075F076207650767076A076D076F0777
:1041E0007207750777077A077C077F0782078407BE
:1041F00087078A078C078F079207940797079A0704
:104200009C079F07A207A407A707AA07AC07AF0749
:10421000B207B407B707BA07BC07BF07C207C4078E
:10422000C707CA07CC07CF07D207D407D707DA07D3
:10423000DC07DF07E207E507E707EA07ED07EF0717
:10424000F207F507F707FA07FD0700080208050857
:1042500008080A080D0810081308150818081B0894
:104260001D0820082308260828082B082E083108D6
:104270003308360839083B083E0841084408460818
:1042800049084C084F085108540857085A085C0858
:104290005F086208650867086A086D087008720898
:1042A000750878087B087E088008830886088908D6
:1042B0008B088E0891089408960899089C089F0816
:1042C000A208A408A708AA08AD08B008B208B50853
:1042D000B808BB08BE08C008C308C608C908CC088F
:1042E000CE08D108D408D708DA08DC08DF08E208CD
:1042F000E508E808EA08ED08F008F308F608F90808
:10430000FB08FE080109040907090A090C090F093D
:104310001209150918091B091D0920092309260975
:1043200029092C092E093109340937093A093D09AF
:1043300040094209450948094B094E0951095409E8
:10434000560959095C095F096209650968096A0922
:104350006D0970097309760979097C097F0981095A
:10436000840987098A098D09900993099609990991
:104370009B099E09A109A409A709AA09AD09B009C9
:10438000B309B509B809BB09BE09C109C409C70900
:10439000CA09CD09D009D309D509D809DB09DE0935
:1043A000E109E409E709EA09ED09F009F309F60969
:1043B000F809FB09FE09010A040A070A0A0A0D0A9C
:1043C000100A130A160A190A1C0A1F0A220A240ACA
:1043D000270A2A0A2D0A300A330A360A390A3C0A01
:1043E0003F0A420A450A480A4B0A4E0A510A540A31
:1043F000570A5A0A5D0A600A630A650A680A6B0A64
:104400006E0A710A740A770A7A0A7D0A800A830A98
:10441000860A890A8C0A8F0A920A950A980A9B0AC8
:104420009E0AA10AA40AA70AAA0AAD0AB00AB30AF8
:10443000B60AB90ABC0ABF0AC20AC50AC80ACB0A28
:10444000CE0AD10AD40AD70ADA0ADD0AE00AE30A58
:10445000E60AE90AEC0AEF0AF20AF50AF80AFB0A88
:10446000FE0A010B040B070B0A0B0D0B100B130BB1
:10447000160B190B1C0B1F0B220B250B280B2B0BE0
:104480002F0B320B350B380B3B0B3E0B410B440B08
:10449000470B4A0B4D0B500B530B560B590B5C0B38
:1044A0005F0B620B650B680B6B0B6E0B720B750B66
:1044B000780B7B0B7E0B810B840B870B8A0B8D0B90
:1044C000900B930B960B990B9C0B9F0BA20BA60BBF
:1044D000A90BAC0BAF0BB20BB50BB80BBB0BBE0BE8
:1044E000C10BC40BC70BCA0BCE0BD10BD40BD70B14
:1044F000DA0BDD0BE00BE30BE60BE90BEC0BF00B3F
:10450000F30BF60BF90BFC0BFF0B020C050C080C64
:104510000B0C0E0C120C150C180C1B0C1E0C210C89
:10452000240C270C2A0C2E0C310C340C370C3A0CB2
:104530003D0C400C430C460C4A0C4D0C500C530CDB
:10454000560C590C5C0C5F0C620C660C690C6C0C04
:104550006F0C720C750C780C7C0C7F0C820C850C2B
:10456000880C8B0C8E0C910C950C980C9B0C9E0C53
:10457000A10CA40CA70CAB0CAE0CB10CB40CB70C7A
:10458000BA0CBD0CC10CC40CC70CCA0CCD0CD00CA1
:10459000D30CD70CDA0CDD0CE00CE30CE60CEA0CC7
:1045A000ED0CF00CF30CF60CF90CFC0C000D030DEB
:1045B000060D090D0C0D0F0D130D160D190D1C0D0B
:1045C0001F0D220D260D290D2C0D2F0D320D360D30
:1045D000390D3C0D3F0D420D450D490D4C0D4F0D54
:1045E000520D550D580D5C0D5F0D620D650D680D7A
:1045F0006C0D6F0D720D750D780D7C0D7F0D820D9C
:10460000850D880D8C0D8F0D920D950D980D9B0DC0
:104610009F0DA20DA50DA80DAB0DAF0DB20DB50DE3
:10462000B80DBB0DBF0DC20DC50DC80DCC0DCF0D06
:10463000D20DD50DD80DDC0DDF0DE20DE50DE80D29
:10464000EC0DEF0DF20DF50DF90DFC0DFF0D020E49
:10465000050E090E0C0E0F0E120E150E190E1C0E65
:104660001F0E220E260E290E2C0E2F0E330E360E86
:10467000390E3C0E3F0E430E460E490E4C0E500EA8
:10468000530E560E590E5D0E600E630E660E690EC9
:104690006D0E700E730E760E7A0E7D0E800E830EEA
:1046A000870E8A0E8D0E900E940E970E9A0E9D0E0A
:1046B000A10EA40EA70EAA0EAE0EB10EB40EB70E2A
:1046C000BB0EBE0EC10EC40EC80ECB0ECE0ED10E4A
:1046D000D50ED80EDB0EDE0EE20EE50EE80EEB0E6A
:1046E000EF0EF20EF50EF90EFC0EFF0E020F060F86
:1046F000090F0C0F0F0F130F160F190F1C0F200FA0
:10470000230F260F2A0F2D0F300F330F370F3A0FBD
:104710003D0F400F440F470F4A0F4E0F510F540FDC
:10472000570F5B0F5E0F610F640F680F6B0F6E0FFB
:10473000720F750F780F7B0F7F0F820F850F890F18
:104740008C0F8F0F920F960F990F9C0FA00FA30F36
:10475000A60FA90FAD0FB00FB30FB70FBA0FBD0F54
:10476000C00FC40FC70FCA0FCE0FD10FD40FD80F71
:10477000DB0FDE0FE10FE50FE80FEB0FEF0FF20F8E
:10478000F50FF90FFC0FFF0F0210061009100C10A7
:104790001010131016101A101D10201023102710BF
:1047A0002A102D103110341037103B103E104110DC
:1047B000451048104B104E105210551058105C10F8
:1047C0005F106210661069106C1070107310761014
:1047D00079107D108010831087108A108D10911031
:1047E000941097109B109E10A110A510A810AB104C
:1047F000AF10B210B510B910BC10BF10C210C61067
:10480000C910CC10D010D310D610DA10DD10E01083
:10481000E410E710EA10EE10F110F410F810FB109D
:10482000FE100211051108110C110F1112111611B1
:1048300019111C112011231126112A112D113011CB
:10484000341137113A113E114111441148114B11E5
:104850004E115211551158115C115F116211661100
:1048600069116C117011731176117A117D1180111B
:10487000841187118A118E119111941198119B1135
:104880009E11A211A511A811AC11AF11B211B61150
:10489000B911BC11C011C311C611CA11CD11D0116B
:1048A000D411D711DB11DE11E111E511E811EB1183
:1048B000EF11F211F511F911FC11FF11031206129B
:1048C00009120D121012131217121A121D122112B0
:1048D000241227122B122E123112351238123C12CA
:1048E0003F124212461249124C12501253125612E3
:1048F0005A125D126012641267126A126E127112FD
:10490000741278127B127F128212851289128C1215
:104910008F129312961299129D12A012A312A7122F
:10492000AA12AD12B112B412B812BB12BE12C21248
:10493000C512C812CC12CF12D212D612D912DC1262
:10494000E012E312E612EA12ED12F112F412F7127B
:10495000FB12FE120113051308130B130F1312138E
:10496000151319131C131F13231326132A132D13A6
:104970003013341337133A133E13411344134813BF
:104980004B134E135213551359135C135F136313D8
:10499000661369136D137013731377137A137D13F2
:1049A00081138413000800080008000801080108AA
:1049B00001080108010801080108010801080108AF
:1049C00001080108010801080108010801080008A0
:1049D000000800080008FF07FF07FF07FE07FE07A3
:1049E000FE07FE07FE07FE07FE07FD07FD07FD07A2
:1049F000FD07FC07FC07FC07FC07FC07FB07FB07A0
:104A0000FB07FB07FA07FA07FA07F907F907F9079F
:104A1000F907F907F907F807F807F807F807F8079B
:104A2000F807F807F807F807F807F907F907F9078B
:104A3000F907F907F907F907F907F907F907F90776
:104A4000F907F907FA07FA07FA07FA07FA07FA0760
:104A5000FB07FB07FB07FB07FB07FC07FB07FF0741
:104A60000008FF0700080008000800080008000808
:104A700000080008000800080008000800080008F6
:104A800000080008000800080008000800080008E6
:104A900000080008000800080008000800080008D6
:104AA00000080008000800080008000800080008C6
:104AB00000080008000800080008000800080008B6
:104AC00000080008000800080008000800080008A6
:104AD0000008000800080008000800080008000896
:104AE0000008000800080008000800080008000886
:104AF0000108010801080008000800080008000873
:104B0000010801080008010801080108000801085F
:104B10000108010801080108010800080008000850
:104B2000000800080108010801080108010801083F
:104B30000008010801080108010800080008010830
:104B40000108000800080008000801080108010821
:104B5000010801080108000801080108010801080E
:104B6000000800080108010801080008FF07000804
:104B70000008FF07FF07FF07FF07FF07FF07FF0703
:104B8000FE07FF07FF07FF07FF07FF07FF07FF07F6
:104B9000FF07FF07FF07FF07FF07FF07FF07FF07E5
:104BA000FF07FF07FF07FF07FE07FE07FE07FE07D9
:104BB000FE07FE07FF07FF07FF070008FF07FF07C5
:104BC000FF07FF07FF07FF070008FF0700080008AF
:104BD000FF07FF0700080008000800080008010898
:104BE0000008010800080008000800080108010882
:104BF0000108010801080108020802080208020869
:104C00000108020802080308030803080308030850
:104C1000030802080208020803080408040804083C
:104C20000308040803080308040804080408040827
:104C30000408040804080408030804080308030817
:104C40000308030804080408040804080408030807
:104C500003080308030803080208030803080308FD
:104C600003080308020802080008010800080108F8
:104C70000108010800080108010801080008FF07F1
:104C8000FE07FE07FF07FF07FF0700080008FF07F2
:104C9000FF07FF07FE07FD07FC07FD07FE07FE07EE
:104CA000FE07FD07FC07FC07FB07FC07FB07FB07EC
:104CB000FA07FB07FC07FC07FD07FC07FC07FA07E0
:104CC000F907F907F807F707F807FA07FB07FD07E1
:104CD000FE07FD07FC07FB07FB07F907F907F907C4
:104CE000FB07FE070008FC07F807F207EF07F307CA
:104CF000FA07020807080408FE07F307E907E307B5
:104D0000E207E907F307FF0708080C080B08090882
:104D1000FD07F407EC07E707E207E507EC07FF07E5
:104D2000130828082A0820080608E807D407C70738
:104D3000D707E90707081708240820080B08EB071E
:104D4000D307C607C707D907FB070E083008350881
:104D50002D081C080808FC07E207E207CC07E30758
:104D6000F4071908260822081F08F207F007D107E0
:104D7000E107D807FA070B080F082F0806081108E3
:104D8000E507EA07E007E507F1071B08180815081B
:104D9000190809080A08FC070708F407E8070108CA
:104DA0000408FE07F907F607EA07FE071E080508CC
:104DB0001108E507E407D3070B081D083C08FC07AA
:104DC000F307CE07CE07110825081F082108DA07C8
:104DD000FD07E207D507230816081E081E0801086C
:104DE000DB07E407CA070D082708FC073008F807A7
:104DF0003A08D507E907E1070B08EF071A08F20799
:104E00000108F60731086608CC07E207C207BA07AF
:104E100016083D0827082308E407ED071608DB07F6
:104E20000A080508F2071208E0070A081208050830
:104E3000FB073408EA071C08FF07E107C507CF078F
:104E40004708230843080D080A08ED07BD07FC07BB
:104E5000E2070D08F707510823081F080508040892
:104E6000A107FA07D0070A08420832086608E007D7
:104E7000BF07E507E40714080208EC074308260803
:104E800026080F08AE07EC07C4073908EB077208BD
:104E9000F607C1078608B907D707C6073108CB0749
:104EA000740815081D080408C307B2070508EF07B2
:104EB0003D0883080F08A707F507B1070708EE07A5
:104EC00062082708F8072408D507CB079E073E0885
:104ED0005C082408E707C907D8076708CE07120847
:104EE000ED07DF075A080A0899071A080308D907C7
:104EF000C408A0071208B907AE074E082D0813080A
:104F0000D5072008CE076308BE073808DA07F00780
:104F1000C1071708030832084608E7074B08AC0723
:104F2000C207EC07D2078C08C6073C08FC077208CA
:104F30006D07F307A3073408360862085908AC0761
:104F40009707D1071B08F0071908150893080808E8
:104F50003D086F07D3075B078E089D07EE08010821
:104F60006A08A707BA07DF07F307BD075908C8078C
:104F7000EB0881072D089B0751080E08860751088A
:104F8000D5075A08CD07DD075D083408D807D307D1
:104F9000C6073F08B5072D085A083E08D207C007C4
:104FA000F4070008DB07DD075C085A082508D90765
:104FB000CE079307EC0742088F07DF08EF07340896
:104FC000C507E5079C072B08D80725084908D80717
:104FD0004608F3078F072108A0074308360847084B
:104FE0001508EB07D9077807FC07F7071A088608A2
:104FF000C707A508D407CC079A07F30747077D081A
:105000003E086F0874089307A3070308AE078008DB
:10501000580724088108F807650877073E085207F3
:105020003508C607FA078208DD075C084E08B40792
:105030008C07E4077C077508DA0723086E08EB077E
:105040000D08F107DF07A007F6070E08FF07130892
:10505000F007F7072408FF07570882071E08C20752
:105060005208AB07E3071B08FE070D08FA072508DF
:10507000F4078607FF076308F207F0070208130822
:105080001E089F07C907E807FD073D084B08FC07F6
:10509000E707EE07C5071C086B0724081F08C207AF
:1050A0009E088107A808A80799072D08A207F807F6
:1050B000210820080608FF07CF0709089007F40712
:1050C000F4074D081A08FA07D4070408A207EC07EA
:1050D0001F080D081E08DA073008D307DC07CE07C3
:1050E000CF0738081208EB0740081E08C907BA079F
:1050F000C0070C08E4073F08D8075908D407D707AA
:105100002B08B4070508D30727081508B207F107CD
:10511000C8072B081D0836082C08C5079407A507E3
:10512000CF072B080F0819087308F1070208DA07E0
:10513000B407B5071B08C5072F0824081E081B085D
:10514000F207C307C907C4078D0733081E082208E2
:105150003608E707F207DB07CA07F2070808EE0779
:10516000D6073408E4072E08CC0722080908F00700
:10517000C507F0070E080308E007F007FC07EF0774
:10518000050822082B08FE07EE07A207DE07C00766
:1051900002083B0811082E082F08C507F2078E07E2
:1051A000D507C907E407400834083F08060819086E
:1051B000EE07C007E807BF07DB070B080F08180852
:1051C0000B080608EC072008F2070908EC070F088F
:1051D0002A081F08E4071A080B081808ED07030837
:1051E000450815083208FC071B08E207CD07F6073B
:1051F00006081C0817081D081D081B08EA07E30716
:105200002908FB071708240819081008DD07D80724
:105210002508DB070C080B0807080308D607E0077A
:10522000B907B407AE079E07CB07E507AB07A8078A
:105230006D077B0753074A076A07670796079707B3
:10524000A707A9077B0771076E077907A607B607A7
:10525000D2070708030821083D085E087B08870875
:105260009308C408E608F108080904091509150996
:1052700000092B093B093209340922092A092609A8
:10528000E508D608C408A3088C0866084E08350847
:105290000A08DC07C6079A07890765073907230745
:1052A0000D07E906AF0686065D0644064306390685
:1052B0004E06590658065F065B067006820687068C
:1052C000A206AD06CF06D506F806150743076E07FA
:1052D000A307D20717084F088408A608E5080309A2
:1052E0003A09440951095E0962095B0950093F09FD
:1052F00037092D092A09320937092E092B09150901
:105300000209F608D408BE08B2088F088508750897
:105310006C086F0862085A084E08420847084F0890
:105320004A084508320821081508FC07DD07CA07A6
:1053300094078507550726071007F206E206D506EB
:10534000CB06BB06B506A2069A0690068A06870615
:105350008E069406B206C906F10614073A076D07D1
:105360009E07CD070208330867089708BB08CB08DB
:10537000E308EC08F6080709FA08F908F108E90853
:10538000F708EF08F408E708DA08DA08D408CC08C8
:10539000C908C108B808B408AC08A808AB08A70831
:1053A000A508AB089A089E08960894089B088F08E1
:1053B000930885088808770864084D082A080E08AD
:1053C000E407BB079E0766073F071907EC06D706E9
:1053D000A7068A0670065A064D06420647063F068D
:1053E0004C065306680676068B06A306C506E80635
:1053F000220746078707A907E6071C0840086B082D
:105400008708A408C308D108E408F50802090B09B5
:105410000C0911090709130905090509F908E40828
:10542000E208D408CA08BC08AC0898089A0883089F
:105430008A0883088F0893089808A608A808BA085D
:10544000AD08C708BB08BB08A308AA08A308A6089C
:105450008108770860084A082C080308E407B107A8
:105460007E0747071207E606AA067E06550630069F
:105470001306040608060C060F0628063706520611
:1054800071069406B306CC06F2061C07450774079E
:105490009B07DA070808330867089408CC08EB086C
:1054A0000A091F092F09390941093C09320929094B
:1054B0001F090709F408E808DC08CD08B808A408A3
:1054C000AB089A08A0089508990893088F089A08CD
:1054D00093089608850889087D087B086F0871087D
:1054E0006C08650866086608690860085B08550866
:1054F0004D08310816080008D707AB0772074E079A
:105500001107EC06B40692066F06580644063B06E1
:1055100037063B06480654066B067906A106B20616
:10552000CE06E20601072B074A0768079807BF0760
:10553000F507200851087E08A508CC08E508F408FE
:10554000080917092109150914090709F808EF08BE
:10555000D308C808B208A4089708940892089608C7
:105560009E089D08A208A808B008AC08AC08A808C6
:10557000AA0898088B0886087C087D086C087508BE
:10558000750878087A087F087A0878087208600831
:105590004C082E080208DC07A80772074007060718
:1055A000CF06AB0681066906530644064206350659
:1055B0003E064C06600672068B06A506C306DD068F
:1055C00003072307440760079007B807E2070208AC
:1055D000330860088308A408D008F108FB080A090A
:1055E000080918090A090709FD08F508DC08CB08AD
:1055F000B5089D089A0884087B086B08640867084A
:1056000071087D08880894089C089D089F08A908CF
:10561000A708AC08A308A0089C08A108A908A60828
:10562000A308A40897089308730866084708220887
:10563000F707CF079F0773073E070F07E106B50679
:105640009A0672065C0646064306380644064D0670
:1056500065066F0689069406B606C106E406FD06D1
:105660001507310757077F07AD07DC0717084708FD
:105670007708A908DA08030921093509430945090A
:105680004109360922091109F608DD08C308AE08E8
:1056900097088C0877086E0865086908620873081F
:1056A0007108800883088A0892088F088F0892087A
:1056B0008E08860886088208880888087F0884087B
:1056C000750876085908500833081B08FB07D807E7
:1056D000B107880758073207FC06D706B9069606B1
:1056E0007F06660663065F0663066B067906830619
:1056F0009806A206C606D106F8060807290742073B
:1057000071079507C907EB07210849086F08A50825
:10571000C508EC080209180924091B0925091709FD
:105720000709EB08D708BC089E0893087B08720895
:105730006C086D086A087208720880087C08860880
:10574000870883088A088B088C088C088C088F08C7
:105750008B088C088F088F088F08860881086708D7
:105760005D083F081D08F307CD079D077107430734
:105770002307FB06DE06B906A406890680067B061B
:1057800071066C067006800686069B06A706C20692
:10579000D706F3061A07390772079307D107F007F0
:1057A0002C0857087E08A208C208DE08EB08FA0891
:1057B000FA08F808F508E608D708C708B408AA08E0
:1057C0008F088408730873086B0869086D087008EF
:1057D00075087E0881088308850889088A088E086C
:1057E0008E088F08980898089B08A008A208A308AC
:1057F000A7089E08940884087108530831080C080B
:10580000E507BC07930768074F072A071107EF064C
:10581000DC06C106B6069F0695068A0690068A062D
:105820009806AA06C006E406060732075E078F0739
:10583000C507F60723084E086D089608A308C00898
:10584000C508D908D908E008E308E008E708E00837
:10585000DF08DA08D508C908C508B208AD089808F5
:105860009008790877086808640863085D0862088A
:10587000670871086A087B08790881087E087F0834
:105880007A0871086A085108420822080708E607E2
:10589000C3079F07830769074D07380728071C07B9
:1058A0000E070207F206EA06DD06D506CE06C60694
:1058B000C806CF06DE06EF0608072E0751077E074B
:1058C000A207CC07EA0715082A084A0854087308F3
:1058D00077088B088A089A089F08A608AF08AF08BF
:1058E000BB08B408B808AF08B108A008A708920818
:1058F000950885088E088108810882088308890830
:105900008A0892089708A108A608AD08AB08A6085F
:105910009B08930875085D083D081C08FB07D6071F
:10592000B707920780075D074C07370723071B0758
:105930000B070407EC06EA06D506D606C906D0060C
:10594000D606EF06FE0624073B0766078D07AC0761
:10595000CD07E90708081608300835084D08520831
:10596000620869087E0887089908A108B508B60882
:10597000AF08AF08A5089B08930882087F08750840
:105980006E087108680863085708560849084808EF
:10599000440841084908400843083F083B082B08D1
:1059A000260812080608EC07D807C907AD079A07AA
:1059B000860776075E075C074E07500742073C07DD
:1059C00030072E0725072B07320740074D075007E2
:1059D0006D0783079D07A607B407BF07C707DA0748
:1059E000F107F307FB0705081008270835084508E5
:1059F000510860086A086D086F086F0868086D082C
:105A000072087B087808850893089608A4089A0805
:105A10009E089608960898088F087B0878085C0806
:105A200057084D08460833082B0813080408F607E2
:105A3000DE07C707AF0799078607840778077A0745
:105A400060076107560752074E074807430742079A
:105A50004507550761075B076D07730787079507BC
:105A60009E07B807CD07D007E907F50708080F0814
:105A7000190834083108450848085B085F086F08B2
:105A80006D08780877087E087B088408790878080C
:105A9000740873086D08600859084A083808250812
:105AA00021082408220812081F08140814080408F2
:105AB000FD07EC07DE07CE07C407D807BF07C707F7
:105AC000C107C607B607C307B407B307AF079C07EC
:105AD000AE07A107A907A007C007BA07CC07C307ED
